:100000000C9435000C94E7020C94C0020C945D0033
:100010000C945D000C945D000C945D000C945D00EC
:100020000C945D000C945D000C945D000C945D00DC
:100030000C945D000C940E030C945D000C945D0018
:100040000C941E020C945D000C948E020C946802B9
:100050000C945D000C945D000C945D000C945D00AC
:100060000C945D000C945D00DB0311241FBECFEFE8
:10007000D8E0DEBFCDBF11E0A0E0B1E0E4E6F8E0FB
:1000800002C005900D92A832B107D9F721E0A8E28D
:10009000B1E001C01D92A63DB207E1F710E0C5E353
:1000A000D0E004C02197FE010E942A04C433D10786
:1000B000C9F70E9435030C9430040C940000809121
:1000C0002A0190912B01A0912C01B0912D01019654
:1000D000A11DB11D80932A0190932B01A0932C01A7
:1000E000B0932D010895AF92BF92CF92DF92EF921D
:1000F000FF920F931F93CF93DF936C017B018B01D2
:10010000040F151FEB015E01AE18BF08C017D10721
:1001100059F06991D601ED91FC910190F081E02DAB
:10012000C6010995892B79F7C501DF91CF911F9100
:100130000F91FF90EF90DF90CF90BF90AF90089518
:10014000FC01538D448D252F30E0842F90E0821BDD
:10015000930B541710F0CF96089501970895FC0162
:10016000918D828D981761F0A28DAE0FBF2FB11DBA
:100170005D968C91928D9F5F9F73928F90E0089512
:100180008FEF9FEF0895FC01918D828D981731F0CC
:10019000828DE80FF11D858D90E008958FEF9FEF20
:1001A0000895FC01918D228D892F90E0805C9F4FF6
:1001B000821B91098F739927089589E391E00E942A
:1001C000D10021E0892B09F420E0822F089580E0FE
:1001D00090E0892B29F00E94DD0081110C94000031
:1001E0000895FC01A48DA80FB92FB11DA35ABF4FCC
:1001F0002C91848D90E001968F739927848FA68926
:10020000B7892C93A089B1898C91837080648C9379
:10021000938D848D981306C00288F389E02D808128
:100220008F7D80830895EF92FF920F931F93CF935A
:10023000DF93EC0181E0888F9B8D8C8D98131AC021
:10024000E889F989808185FF15C09FB7F894EE8908
:10025000FF896083E889F989808183708064808365
:100260009FBF81E090E0DF91CF911F910F91FF90B0
:10027000EF900895F62E0B8D10E00F5F1F4F0F7358
:100280001127E02E8C8D8E110CC00FB607FCFACF13
:10029000E889F989808185FFF5CFCE010E94F100C0
:1002A000F1CFEB8DEC0FFD2FF11DE35AFF4FF082E4
:1002B0009FB7F8940B8FEA89FB8980818062CFCF4A
:1002C000CF93DF93EC01888D8823B9F0AA89BB898D
:1002D000E889F9898C9185FD03C0808186FD0DC078
:1002E0000FB607FCF7CF8C9185FFF2CF808185FF99
:1002F000EDCFCE010E94F100E9CFDF91CF910895BB
:100300000895FC0101900020E9F73197AF01481BE7
:10031000590BBC0189E391E00C9473008F929F927A
:10032000AF92BF92CF92DF92EF92FF92CF93DF9383
:10033000CDB7DEB7A1970FB6F894DEBF0FBECDBF25
:10034000F89480912A0190912B01A0912C01B091F9
:100350002D01909329018093280186E191E00E946C
:100360008101C0902801D09029010D2C000CEE08CD
:10037000FF08F7FE48C06DE289E391E00E94130197
:1003800022273327A9012C193D094E095F0919A21B
:10039000CE0181967C019AE0892E912CA12CB12C62
:1003A000CA01B901A50194010E940804605DF7012A
:1003B00062937F01211531054105510589F7E1144B
:1003C000F10419F0C7010E94810184E291E00E94CA
:1003D000810110922A0110922B0110922C0110928F
:1003E0002D017894A1960FB6F894DEBF0FBECDBF55
:1003F000DF91CF91FF90EF90DF90CF90BF90AF90C3
:100400009F908F900895A701960119A2CE01819621
:100410007C018AE0882E912CA12CB12CCA01B90153
:10042000A50194010E940804605DF70162937F01B9
:10043000211531054105510589F7C1CF1F920F9252
:100440000FB60F9211242F933F938F939F93AF93E7
:10045000BF938091350190913601A0913701B09101
:1004600038013091340123E0230F2D3758F50196E0
:10047000A11DB11D20933401809335019093360165
:10048000A0933701B09338018091300190913101F0
:10049000A0913201B09133010196A11DB11D80934D
:1004A000300190933101A0933201B0933301BF9199
:1004B000AF919F918F913F912F910F900FBE0F9011
:1004C0001F90189526E8230F0296A11DB11DD2CFCB
:1004D0001F920F920FB60F9211242F933F934F93B9
:1004E0005F936F937F938F939F93AF93BF93EF939C
:1004F000FF9389E391E00E94F100FF91EF91BF919A
:10050000AF919F918F917F916F915F914F913F91AB
:100510002F910F900FBE0F901F9018951F920F9262
:100520000FB60F9211242F938F939F93EF93FF9306
:10053000E0914901F0914A018081E0914F01F091F1
:10054000500182FD1BC09081809152018F5F8F739B
:1005500020915301821741F0E0915201F0E0E75CF5
:10056000FE4F958F80935201FF91EF919F918F9154
:100570002F910F900FBE0F901F9018958081F4CF90
:100580001F920F920FB60F9211242F933F934F9308
:100590005F936F937F938F939F93AF93BF93EF93EB
:1005A000FF93E0910201F09103010995FF91EF9112
:1005B000BF91AF919F918F917F916F915F914F917B
:1005C0003F912F910F900FBE0F901F9018951F9283
:1005D0000F920FB60F9211242F933F934F935F9377
:1005E0006F937F938F939F93AF93BF93EF93FF93FB
:1005F000E0910001F09101010995FF91EF91BF9108
:10060000AF919F918F917F916F915F914F913F91AA
:100610002F910F900FBE0F901F9018951F920F9261
:100620000FB60F9211242F933F934F935F936F93C5
:100630007F938F939F93AF93BF93EF93FF93E0913B
:100640002E01F0912F010995FF91EF91BF91AF918C
:100650009F918F917F916F915F914F913F912F91DA
:100660000F900FBE0F901F901895789484B58260FC
:1006700084BD84B5816084BD85B5826085BD85B546
:10068000816085BD80916E00816080936E001092C4
:10069000810080918100826080938100809181003F
:1006A00081608093810080918000816080938000D0
:1006B0008091B10084608093B1008091B00081602E
:1006C0008093B00080917A00846080937A0080915A
:1006D0007A00826080937A0080917A0081608093B2
:1006E0007A0080917A00806880937A001092C1002D
:1006F000E0914901F0914A0182E08083E091450157
:10070000F09146011082E0914701F09148018FEC91
:10071000808310925101E0914D01F0914E0186E0ED
:100720008083E0914B01F0914C0180818061808356
:10073000E0914B01F0914C01808188608083E091D1
:100740004B01F0914C01808180688083E0914B01E6
:10075000F0914C0180818F7D80838FE590E09093B4
:10076000010180930001809169008360809369009A
:10077000E89A80E1809381001092800082E19AE7FC
:10078000909387008093860084E1809381008EE8B7
:1007900091E090932F0180932E0181E080936F0070
:1007A000C0E0D0E02097F1F30E94DD008823D1F370
:1007B0000E940000F7CFE9E3F1E01382128288EE95
:1007C00093E0A0E0B0E084839583A683B78388E0BC
:1007D00091E09183808385EC90E09587848784EC19
:1007E00090E09787868780EC90E0918B808B81ECFE
:1007F00090E0938B828B82EC90E0958B848B86ECDF
:1008000090E0978B868B118E128E138E148E089526
:10081000A1E21A2EAA1BBB1BFD010DC0AA1FBB1F04
:10082000EE1FFF1FA217B307E407F50720F0A21B76
:10083000B30BE40BF50B661F771F881F991F1A94E3
:1008400069F760957095809590959B01AC01BD010D
:10085000CF010895EE0FFF1F0590F491E02D09944C
:04086000F894FFCF3A
:10086400800180010000000013017300A0006001FA
:10087400D100AF00C3005370656564202850505305
:08088400293A20000D0A0000D2
:00000001FF
