:100000000C945D000C94CE060C94A7060C9485000D
:100010000C9485000C9485000C9485000C9485004C
:100020000C9485000C9485000C9485000C9485003C
:100030000C9485000C94F5060C9485000C948500B6
:100040000C9405060C9485000C9475060C944F06D0
:100050000C9485000C9485000C9485000C9485000C
:100060000C9485000C9485000000000024002700FB
:100070002A0000000000250028002B0004040404CE
:100080000404040402020202020203030303030342
:10009000010204081020408001020408102001021F
:1000A00004081020000000080002010000030407FB
:1000B0000000000000000000AB0711241FBECFEFBE
:1000C000D8E0DEBFCDBF21E0A0E4B1E001C01D92C9
:1000D000A53FB207E1F711E0A0E0B1E0E2E8F9E105
:1000E00002C005900D92A034B107D9F710E0CDE51C
:1000F000D0E004C02197FE010E94A90ACC35D107A7
:10010000C9F70E941C070C94BF0C0C940000CF92FE
:10011000DF92EF92FF920F931F93CF93DF936C01C7
:100120007A018B01C0E0D0E0CE15DF0581F0D80167
:100130006D918D01D601ED91FC910190F081E02D42
:10014000C6010995892B11F02196EECF7E01C701DA
:10015000DF91CF911F910F91FF90EF90DF90CF90A3
:100160000895089580E090E00895FC01538D448D3A
:10017000252F30E0842F90E0821B930B541710F052
:10018000CF96089501970895FC01918D828D98175F
:1001900061F0828DDF01A80FB11D5D968C91928D6B
:1001A0009F5F9F73928F90E008958FEF9FEF089568
:1001B0002FB7F8948091500190915101A091520174
:1001C000B09153012FBF80935C0190935D01A09388
:1001D0005E01B0935F0184E591E00E94C40097FF47
:1001E00026C02FB7F8948091500190915101A091B1
:1001F0005201B09153012FBF40915C0150915D01BC
:1002000060915E0170915F01841B950BA60BB70B8B
:10021000409158015091590160915A0170915B01D0
:1002200084179507A607B707B0F28FEF9FEF0895E1
:10023000FC01918D828D981731F0828DE80FF11DB0
:10024000858D90E008958FEF9FEF0895FC01918DCB
:10025000228D892F90E0805C9F4F821B91098F73C4
:100260009927089584E591E00E94260121E0892BD9
:1002700009F420E0822F0895FC01848DDF01A80F8E
:10028000B11DA35ABF4F2C91848D90E001968F73BE
:100290009927848FA689B7892C93A089B1898C91DD
:1002A000837080648C93938D848D981306C002882C
:1002B000F389E02D80818F7D80830895EF92FF92F6
:1002C0000F931F93CF93DF93EC0181E0888F9B8D79
:1002D0008C8D981305C0E889F989808185FD26C039
:1002E000F62E0B8D10E00F5F1F4F0F731127E02EBE
:1002F0008C8DE8120CC00FB607FCFACFE889F9899B
:10030000808185FFF5CFCE010E943C01F1CF8B8D1E
:10031000FE01E80FF11DE35AFF4FF0829FB7F894FA
:100320000B8FEA89FB89808180620AC09FB7F894AD
:10033000EE89FF896083E889F98980818370806410
:1003400080839FBF81E090E0DF91CF911F910F915B
:10035000FF90EF900895CF93DF93EC01888D882371
:10036000C9F0EA89FB89808185FD05C0A889B98922
:100370008C9186FD0FC00FB607FCF5CF808185FFFD
:10038000F2CFA889B9898C9185FFEDCFCE010E946B
:100390003C01E7CFDF91CF91089590E0FC01EC554F
:1003A000FF4F2491FC01E057FF4F3491FC01E458CA
:1003B000FF4FE491EE2309F43CC0222339F12330AE
:1003C00091F038F42130A9F0223001F584B58F7D09
:1003D00012C0273091F02830A1F02430B9F4809178
:1003E00080008F7D03C0809180008F778093800094
:1003F0000DC084B58F7784BD09C08091B0008F7720
:1004000003C08091B0008F7D8093B000F0E0EE0FCC
:10041000FF1FEE58FF4FA591B4919FB7F89461115B
:1004200004C08C913095382302C0EC913E2B3C9354
:100430009FBF0895CF93DF9390E0FC01E057FF4FFB
:100440002491FC01E458FF4F8491882361F190E0EE
:10045000880F991FFC01E859FF4FC591D491FC0109
:10046000EE58FF4FA591B491611109C09FB7F89460
:100470008881209582238883EC912E230BC06230E3
:1004800061F49FB7F8948881322F30958323888355
:10049000EC912E2B2C939FBF06C08FB7F894E88168
:1004A0002E2B28838FBFDF91CF91089508956091FF
:1004B000440170914501809146019091470120E0EF
:1004C00030E040E85FE30E9470096093440170935C
:1004D000450180934601909347010895009769F084
:1004E000FC0101900020E9F73197AF01481B590B3F
:1004F000BC0184E591E00C94870080E090E00895D1
:100500000E94960CFC0124813581232B31F421E0DB
:1005100061157105A1F0FB0108C0FC01808191818A
:100520006115710531F421E0FC018081882339F0E7
:1005300005C00E94AF0C21E0892B09F020E0822F3A
:1005400008950F931F93CF93DF93EC0188819981D6
:10055000009729F02A813B812617370788F48B0101
:100560006F5F7F4F0E94D00B009761F09983888363
:100570001B830A832C813D81232B11F4FC01108203
:1005800081E001C080E0DF91CF911F910F9108952C
:10059000EF92FF920F931F93CF93DF93EC017B01B8
:1005A0008A01BA010E94A1022881398181110DC0FE
:1005B0002115310519F0C9010E94470B19821882D3
:1005C0001D821C821B821A8206C01D830C83B70108
:1005D000C9010E94B80CCE01DF91CF911F910F91FC
:1005E000FF90EF900895BF92CF92DF92EF92FF922B
:1005F0000F931F93CF93DF937C016B01EA01890175
:100600002417350720F48D2FE901042F182FD70167
:1006100011961C921E9213961C921E92129715967A
:100620001C921E92149740E050E06EE371E0C70107
:100630000E94C802F60184819581C817D907C0F5C8
:100640008017910708F48C01D601ED91FC91119768
:10065000E00FF11FB08010826D917C916C0F7D1FB7
:100660006115710561F0FB0101900020E9F73197F8
:10067000AF01461B570BC7010E94C80213C0F70108
:1006800080819181009711F00E94470BD70111964C
:100690001C921E9215961C921E92149713961C92F1
:1006A0001E921297D601ED91FC91E00FF11FB082DE
:1006B000C701DF91CF911F910F91FF90EF90DF90D5
:1006C000CF90BF900895EF92FF920F931F93CF9317
:1006D000DF93CDB7DEB762970FB6F894DEBF0FBEDB
:1006E000CDBF1A8219821C821B821E821D8240E0AD
:1006F00050E06EE371E0CE0101960E94C8020E94B4
:10070000D8000D811E8197FD1CC08A309105C9F06B
:100710008F8318860F5F1F4FB801CE0101960E948C
:10072000A102882361F329813A818D819E81BE01D6
:10073000695F7F4F820F931F0E94B80C1E830D8349
:10074000DECF012B69F009811A816CE270E0C801EB
:100750000E94A40C009721F09C01201B310B02C0C9
:100760002FEF3FEF40E050E0BE016F5F7F4FCE01C3
:1007700007960E94F3020D811E810115110569F093
:10078000E980FA806CE270E0C7010E94A40C009737
:1007900021F0AC014E195F0902C04FEF5FEF4F5FD0
:1007A0005F4F9801BE016F5F7F4FCE010D960E9493
:1007B000F30284E591E00E94AB016DE171E0CE01AE
:1007C00007960E948202882319F180E180938100BC
:1007D0001092800082E19AE79093870080938600D0
:1007E00084E18093810085EC94E090934A018093AA
:1007F000490181E080936F0087E592E090930201C8
:100800008093010180916900836080936900E89A78
:1008100063E271E0CE0107960E948202882349F0CC
:1008200010926F00E89886E592E090930201809321
:10083000010168E271E0CE0107960E9482028823DE
:1008400009F462C08D859E85009719F00E94D80733
:1008500001C060E060934801F09048010F2D10E066
:1008600061E085E00E941A020115110511F460E0B3
:1008700004C00F3F110529F461E085E00E94CD011D
:1008800043C0E9EAF0E0E491E330F9F048F4E13004
:10089000B9F0E230A1F584B5806284BDF8BC34C003
:1008A000E730E9F0E83019F1E43049F58091800053
:1008B00080628093800010938B0000938A0024C094
:1008C00084B5806884BDF7BC1FC0809180008068BB
:1008D00080938000109389000093880015C0809158
:1008E000B00080688093B000F092B3000DC080919A
:1008F000B00080628093B000F092B40005C0003870
:1009000011050CF0B9CFB3CF6CE271E0CE010796C0
:100910000E9482028823D1F08D859E85009719F070
:100920000E94D80701C060E060930001809100013F
:100930008A3021F461E088E00E94CD0180910001BD
:10094000843121F460E088E00E94CD018D859E8590
:100950000E94470B8F8198850E94470B89819A815D
:100960000E94470B62960FB6F894DEBF0FBECDBF54
:10097000DF91CF911F910F91FF90EF9008950E940A
:10098000320181110C94630308952F923F924F928C
:100990005F926F927F928F929F92AF92BF92CF920F
:1009A000DF92EF92FF920F931F93CF93DF93CDB718
:1009B000DEB7A2970FB6F894DEBF0FBECDBF609131
:1009C000440170914501809146019091470120E0DA
:1009D00030E0A9010E947D0A18160CF0FDC060915C
:1009E000440170914501809146019091470120E0BA
:1009F00030E040E451E40E94DC0920E030E040E7D0
:100A000052E40E947A086093400170934101809300
:100A1000420190934301C0904001D0904101E09089
:100A20004201F0904301A7019601C701B6010E945F
:100A3000820A882319F080E391E01AC04601570129
:100A4000E894B7F82FEF3FEF4FE75FE7C501B40138
:100A50000E94820A81110FC02FEF3FEF4FE75FE73F
:100A6000C501B4010E94140818162CF484E391E027
:100A70000E946E02A5C02FEF3FEF4FE75FE4C70172
:100A8000B6010E947D0A18161CF488E391E0F0CFAD
:100A90002FEF3FEF4FE75FECC701B6010E9414084C
:100AA00087FDF3CF20E030E0A901C701B6010E9425
:100AB000140887FF09C06DE284E591E00E945E01A1
:100AC000F7FAF094F7F8F0942AE037ED43EA5BE3A5
:100AD000C701B6010E9470094B015C010E944E0AD9
:100AE0006B017C010E9419089B01AC01C501B40196
:100AF0000E946F094B015C0119A28E010F5D1F4F0F
:100B00000AA3612E2AE0222E312C412C512CC70140
:100B1000B601A20191010E94870A69017A01605D14
:100B2000F80162938F01232B242B252B81F7CF0112
:100B30000E946E026EE284E591E00E945E0183E015
:100B4000F82E9AE0292E312C412C512CFA94FF20BA
:100B5000B9F120E030E040E251E4C501B4010E9467
:100B60007A084B015C010E944E0A9B0140E050E074
:100B700019A20AA1162D762EC32ED42EE52ECA0157
:100B8000B901A20191010E94870A605DF801629398
:100B90008F01211531054105510589F7CF010E94CB
:100BA0006E02672D7C2D8D2D9E2D0E9419089B01B4
:100BB000AC01C501B4010E946F094B015C01C6CFB5
:100BC0008CE391E00E946E02109244011092450164
:100BD0001092460110924701A2960FB6F894DEBF1C
:100BE0000FBECDBFDF91CF911F910F91FF90EF907E
:100BF000DF90CF90BF90AF909F908F907F906F903D
:100C00005F904F903F902F9008951F920F920FB6D4
:100C10000F9211242F933F938F939F93AF93BF9382
:100C20008091500190915101A0915201B0915301D6
:100C300030914F0123E0230F2D3720F40196A11DA1
:100C4000B11D05C026E8230F0296A11DB11D2093FA
:100C50004F018093500190935101A0935201B093A2
:100C6000530180914B0190914C01A0914D01B091A5
:100C70004E010196A11DB11D80934B0190934C0133
:100C8000A0934D01B0934E01BF91AF919F918F9171
:100C90003F912F910F900FBE0F901F9018951F92AC
:100CA0000F920FB60F9211242F933F934F935F93A0
:100CB0006F937F938F939F93AF93BF93EF93FF9324
:100CC00084E591E00E943C01FF91EF91BF91AF91CB
:100CD0009F918F917F916F915F914F913F912F9154
:100CE0000F900FBE0F901F9018951F920F920FB686
:100CF0000F9211242F938F939F93EF93FF93E09183
:100D00006401F09165018081E0916A01F0916B01CD
:100D100082FD12C0908180916D018F5F8F73209151
:100D20006E01821751F0E0916D01F0E0EC5AFE4F38
:100D3000958F80936D0101C08081FF91EF919F910C
:100D40008F912F910F900FBE0F901F9018951F92AB
:100D50000F920FB60F9211242F933F934F935F93EF
:100D60006F937F938F939F93AF93BF93EF93FF9373
:100D7000E0910301F09104010995FF91EF91BF917A
:100D8000AF919F918F917F916F915F914F913F9123
:100D90002F910F900FBE0F901F9018951F920F92DA
:100DA0000FB60F9211242F933F934F935F936F933E
:100DB0007F938F939F93AF93BF93EF93FF93E091B4
:100DC0000101F09102010995FF91EF91BF91AF915F
:100DD0009F918F917F916F915F914F913F912F9153
:100DE0000F900FBE0F901F9018951F920F920FB685
:100DF0000F9211242F933F934F935F936F937F93A1
:100E00008F939F93AF93BF93EF93FF93E09149012B
:100E1000F0914A010995FF91EF91BF91AF919F9198
:100E20008F917F916F915F914F913F912F910F9093
:100E30000FBE0F901F901895789484B5826084BD82
:100E400084B5816084BD85B5826085BD85B58160CE
:100E500085BD80916E00816080936E00109281004C
:100E60008091810082608093810080918100816007
:100E700080938100809180008160809380008091C8
:100E8000B10084608093B1008091B0008160809354
:100E9000B00080917A00846080937A0080917A001B
:100EA000826080937A0080917A00816080937A00DA
:100EB00080917A00806880937A001092C100E0915E
:100EC0006401F091650182E08083E0916001F0911E
:100ED00061011082E0916201F091630180E1808301
:100EE00010926C01E0916801F091690186E08083C5
:100EF000E0916601F0916701808180618083E091DB
:100F00006601F0916701808188608083E0916601CD
:100F1000F0916701808180688083E0916601F091A3
:100F2000670180818F7D808361E085E00E941A02E5
:100F300061E088E00E941A0260E088E00E94CD0132
:100F400060E085E00E94CD0160E082E00E941A022C
:100F50000E94BF04FDCFE4E5F1E01382128288EE27
:100F600093E0A0E0B0E084839583A683B7838FE00D
:100F700091E09183808385EC90E09587848784EC71
:100F800090E09787868780EC90E0918B808B81EC56
:100F900090E0938B828B82EC90E0958B848B86EC37
:100FA00090E0978B868B118E128E138E148E08957F
:100FB0001F93FC0199278827BC01E89411911032F6
:100FC000E9F3193010F01E30C8F31B3251F01D3216
:100FD00049F4689406C00E94FF07610F711D811DCE
:100FE000911D119110531A30B0F33EF490958095F5
:100FF000709561957F4F8F4F9F4F1F910895592F87
:10100000482F372F262F660F771F881F991F660FCF
:10101000771F881F991F620F731F841F951F660F0C
:10102000771F881F991F08950E94560808F481E0D1
:101030000895E89409C097FB3EF4909580957095CB
:1010400061957F4F8F4F9F4F9923A9F0F92F96E914
:10105000BB279395F695879577956795B795F11189
:10106000F8CFFAF4BB0F11F460FF1BC06F5F7F4F26
:101070008F4F9F4F16C0882311F096E911C0772338
:1010800021F09EE8872F762F05C0662371F096E841
:10109000862F70E060E02AF09A95660F771F881F10
:1010A000DAF7880F9695879597F90895990F0008B4
:1010B000550FAA0BE0E8FEEF16161706E807F9072A
:1010C000C0F012161306E407F50798F0621B730BC5
:1010D000840B950B39F40A2661F0232B242B252B46
:1010E00021F408950A2609F4A140A6958FEF811DE9
:1010F000811D08950E948D080C94FE080E94F0083E
:1011000038F00E94F70820F0952311F00C94E708BE
:101110000C94ED0811240C9432090E940F0970F30D
:10112000959FC1F3950F50E0551F629FF001729F8C
:10113000BB27F00DB11D639FAA27F00DB11DAA1F9B
:10114000649F6627B00DA11D661F829F2227B00DE8
:10115000A11D621F739FB00DA11D621F839FA00D73
:10116000611D221F749F3327A00D611D231F849FC3
:10117000600D211D822F762F6A2F11249F5750401A
:101180009AF0F1F088234AF0EE0FFF1FBB1F661F95
:10119000771F881F91505040A9F79E3F510580F05E
:1011A0000C94E7080C9432095F3FE4F3983ED4F3C3
:1011B000869577956795B795F795E7959F5FC1F702
:1011C000FE2B880F911D9695879597F9089597F9AD
:1011D0009F6780E870E060E008959FEF80EC0895DD
:1011E00000240A9416161706180609060895002406
:1011F0000A9412161306140605060895092E039480
:10120000000C11F4882352F0BB0F40F4BF2B11F4F3
:1012100060FF04C06F5F7F4F8F4F9F4F089557FD52
:101220009058440F551F59F05F3F71F04795880F54
:1012300097FB991F61F09F3F79F0879508951216EB
:1012400013061406551FF2CF4695F1DF08C0161697
:1012500017061806991FF1CF869571056105089448
:101260000895E894BB2766277727CB0197F908955F
:101270002F923F924F925F926F927F928F929F92A6
:10128000AF92BF92CF92DF92EF92FF920F931F9394
:10129000CF93DF93CDB7DEB7CA1BDB0B0FB6F89445
:1012A000DEBF0FBECDBF09942A88398848885F8485
:1012B0006E847D848C849B84AA84B984C884DF80F6
:1012C000EE80FD800C811B81AA81B981CE0FD11DDA
:1012D0000FB6F894DEBF0FBECDBFED010895505894
:1012E000BB27AA270E9487090C94FE080E94F008D9
:1012F00038F00E94F70820F039F49F3F19F426F4E3
:101300000C94ED080EF4E095E7FB0C94E708E92F48
:101310000E940F0958F3BA176207730784079507ED
:1013200020F079F4A6F50C9431090EF4E0950B2E1B
:10133000BA2FA02D0B01B90190010C01CA01A00127
:101340001124FF27591B99F0593F50F4503E68F182
:101350001A16F040A22F232F342F4427585FF3CFC3
:10136000469537952795A795F0405395C9F77EF494
:101370001F16BA0B620B730B840BBAF09150A1F0DD
:10138000FF0FBB1F661F771F881FC2F70EC0BA0F63
:10139000621F731F841F48F4879577956795B795EB
:1013A000F7959E3F08F0B0CF9395880F08F09927E6
:1013B000EE0F9795879508950E94F0090C94FE080A
:1013C0000E94F70858F00E94F00840F029F45F3FAF
:1013D00029F00C94E70851110C9432090C94ED0893
:1013E0000E940F0968F39923B1F3552391F3951BDC
:1013F000550BBB27AA2762177307840738F09F5F36
:101400005F4F220F331F441FAA1FA9F335D00E2EA2
:101410003AF0E0E832D091505040E695001CCAF70F
:101420002BD0FE2F29D0660F771F881FBB1F2617D2
:1014300037074807AB07B0E809F0BB0B802DBF01A9
:10144000FF2793585F4F3AF09E3F510578F00C9478
:10145000E7080C9432095F3FE4F3983ED4F3869595
:1014600077956795B795F7959F5FC9F7880F911D99
:101470009695879597F90895E1E0660F771F881F85
:10148000BB1F621773078407BA0720F0621B730B38
:10149000840BBA0BEE1F88F7E09508950E94170998
:1014A00088F09F5798F0B92F9927B751B0F0E1F025
:1014B000660F771F881F991F1AF0BA95C9F714C0D5
:1014C000B13091F00E943109B1E008950C943109D6
:1014D000672F782F8827B85F39F0B93FCCF386950E
:1014E00077956795B395D9F73EF49095809570956B
:1014F00061957F4F8F4F9F4F08950E94560808F4C3
:101500008FEF08950E945608880B990B0895A1E269
:101510001A2EAA1BBB1BFD010DC0AA1FBB1FEE1F6D
:10152000FF1FA217B307E407F50720F0A21BB30BB8
:10153000E40BF50B661F771F881F991F1A9469F734
:1015400060957095809590959B01AC01BD01CF0190
:101550000895EE0FFF1F0590F491E02D09940F936D
:101560001F93CF93DF938230910510F482E090E0D7
:10157000E091F301F091F40120E030E0A0E0B0E070
:10158000309719F140815181028113814817590721
:10159000C8F08417950769F4109731F012960C93F0
:1015A000129713961C9327C00093F3011093F40134
:1015B00022C02115310519F04217530718F49A017A
:1015C000BD01EF01DF01F801DBCF21153105F9F095
:1015D000281B390B2430310580F48A819B816115E9
:1015E000710521F0FB019383828304C09093F40181
:1015F0008093F301FE01329644C0FE01E20FF31F17
:101600008193919322503109398328833AC02091E4
:10161000F1013091F201232B41F420910701309127
:1016200008013093F2012093F101209105013091DE
:1016300006012115310541F42DB73EB7409109014E
:1016400050910A01241B350BE091F101F091F20158
:10165000E217F307A0F42E1B3F0B2817390778F089
:10166000AC014E5F5F4F2417350748F04E0F5F1FE8
:101670005093F2014093F1018193919302C0E0E015
:10168000F0E0CF01DF91CF911F910F910895CF939B
:10169000DF93009709F481C0FC0132971382128214
:1016A000A091F301B091F401109781F42081318170
:1016B000820F931F2091F1013091F2012817390711
:1016C00051F5F093F201E093F10167C0ED0120E0E4
:1016D00030E0CE17DF0740F44A815B819E0141155F
:1016E0005105F1F0EA01F5CFD383C28340815181E6
:1016F000840F951FC817D90759F488819981840FE1
:10170000951F0296918380838A819B819383828334
:101710002115310529F4F093F401E093F3013DC064
:10172000E901FB83EA8349915991C40FD51FEC1756
:10173000FD0761F480819181840F951F0296E90174
:1017400099838883828193819B838A83E0E0F0E0A0
:1017500012968D919C911397009719F0FD01DC0171
:10176000F7CF8D919C9111979D012E5F3F4F820F76
:10177000931F2091F1013091F2012817390769F484
:10178000309729F41092F4011092F30102C01382F1
:101790001282B093F201A093F101DF91CF910895ED
:1017A000A0E0B0E0E6EDFBE00C943C09EC01009712
:1017B00021F4CB010E94AF0AB4C0FC01E60FF71F71
:1017C0009C0122503109E217F30708F4A8C0D9019F
:1017D0000D911C91119706171707B0F005301105F0
:1017E00008F49BC0C80104978617970708F495C0B2
:1017F00002501109061B170B019311936D937C93F3
:10180000CF010E94470B89C05B01A01AB10A4C01AD
:10181000800E911EA091F301B091F401612C712C06
:10182000E12CF12C109709F446C08D919C911197F1
:10183000A815B905B1F56C0142E0C40ED11CCA145B
:10184000DB0478F14C018A189B08640142E0C40E65
:10185000D11C1296BC9012971396AC91B5E0CB16A2
:10186000D10440F0B282A38391828082D9016D932A
:101870007C9309C00E5F1F4F800F911FF901918368
:101880008083EB2DFA2FE114F10431F0D701139688
:10189000FC93EE93129741C0F093F401E093F301AF
:1018A0003CC06816790608F43C017D0112960D9043
:1018B000BC91A02DB7CF8091F1019091F2018816D3
:1018C0009906E1F466167706C8F4809105019091B7
:1018D0000601009741F48DB79EB7409109015091E0
:1018E0000A01841B950BE817F907C8F4F093F2017D
:1018F000E093F101F901718360830FC0CB010E9475
:10190000AF0A7C01009759F0A801BE010E949B0C10
:10191000CE010E94470BC70104C0CE0102C080E087
:1019200090E0CDB7DEB7EEE00C94580981E090E08E
:10193000F8940C94BF0CFB01DC0102C001900D92E5
:1019400041505040D8F70895FC018191861721F04D
:101950008823D9F7992708953197CF010895FB017E
:10196000DC018D91019080190110D9F3990B089534
:10197000FB01DC0101900D920020E1F70895F8943D
:02198000FFCF97
:101982000A560256020000F5018000000000005EC7
:10199200018700B500AB012601C400180173746110
:1019A20072740073746F700070776D0064697200F6
:1019B2006E616E00696E66006F7666000D0A000049
:107E0000112484B714BE81FFF0D085E080938100F7
:107E100082E08093C00088E18093C10086E0809377
:107E2000C20080E18093C4008EE0C9D0259A86E02C
:107E300020E33CEF91E0309385002093840096BBD3
:107E4000B09BFECF1D9AA8958150A9F7CC24DD24C4
:107E500088248394B5E0AB2EA1E19A2EF3E0BF2EE7
:107E6000A2D0813461F49FD0082FAFD0023811F036
:107E7000013811F484E001C083E08DD089C08234E0
:107E800011F484E103C0853419F485E0A6D080C0E4
:107E9000853579F488D0E82EFF2485D0082F10E0AE
:107EA000102F00270E291F29000F111F8ED06801E7
:107EB0006FC0863521F484E090D080E0DECF843638
:107EC00009F040C070D06FD0082F6DD080E0C81688
:107ED00080E7D80618F4F601B7BEE895C0E0D1E017
:107EE00062D089930C17E1F7F0E0CF16F0E7DF06D8
:107EF00018F0F601B7BEE89568D007B600FCFDCFD4
:107F0000A601A0E0B1E02C9130E011968C91119780
:107F100090E0982F8827822B932B1296FA010C0160
:107F200087BEE89511244E5F5F4FF1E0A038BF0790
:107F300051F7F601A7BEE89507B600FCFDCF97BE46
:107F4000E89526C08437B1F42ED02DD0F82E2BD052
:107F50003CD0F601EF2C8F010F5F1F4F84911BD097
:107F6000EA94F801C1F70894C11CD11CFA94CF0C13
:107F7000D11C0EC0853739F428D08EE10CD085E9AC
:107F80000AD08FE07ACF813511F488E018D01DD067
:107F900080E101D065CF982F8091C00085FFFCCF94
:107FA0009093C60008958091C00087FFFCCF809118
:107FB000C00084FD01C0A8958091C6000895E0E648
:107FC000F0E098E1908380830895EDDF803219F02E
:107FD00088E0F5DFFFCF84E1DECF1F93182FE3DFCA
:107FE0001150E9F7F2DF1F91089580E0E8DFEE27F6
:047FF000FF270994CA
:027FFE00040479
:0400000300007E007B
:00000001FF