:100000000C945D000C9485000C9485000C94850084
:100010000C9485000C9485000C9485000C9485004C
:100020000C9485000C9485000C9485000C9485003C
:100030000C9485000C9485000C9485000C9485002C
:100040000C9416040C9485000C9486040C946004A3
:100050000C9485000C9485000C9485000C9485000C
:100060000C9485000C94850000000008000201003B
:100070000003040700000000000000000000000072
:10008000250028002B0000000000240027002A0083
:10009000040404040404040402020202020203032E
:1000A0000303030301020408102040800102040836
:1000B00010200102040810206A0511241FBECFEF92
:1000C000D8E0DEBFCDBF21E0ACE2B1E001C01D92BF
:1000D000A73DB207E1F711E0A0E0B1E0E4E4F0E110
:1000E00002C005900D92AC32B107D9F710E0CDE512
:1000F000D0E004C02197FE010E940A06CC35D1074A
:10010000C9F70E94B8040C9420080C94000090E0F9
:10011000FC01EC55FF4F2491FC01E057FF4F849107
:10012000882399F090E0880F991FFC01EA57FF4F50
:10013000A591B491FC01E458FF4F859194918FB73C
:10014000F894EC91E22BEC938FBF0895CF92DF925D
:10015000EF92FF920F931F93CF93DF936C017A017D
:100160008B01C0E0D0E0CE15DF0581F0D8016D91A4
:100170008D01D601ED91FC910190F081E02DC60139
:100180000995892B11F02196EECF7E01C701DF91F1
:10019000CF911F910F91FF90EF90DF90CF90089536
:1001A000089580E090E00895FC01538D448D252F43
:1001B00030E0842F90E0821B930B541710F0CF9601
:1001C000089501970895FC01918D828D981761F033
:1001D000828DDF01A80FB11D5D968C91928D9F5F7E
:1001E0009F73928F90E008958FEF9FEF08952FB740
:1001F000F8948091320190913301A0913401B09133
:1002000035012FBF80933E0190933F01A0934001A1
:10021000B093410186E391E00E94E30097FF26C07E
:100220002FB7F8948091320190913301A09134015D
:10023000B09135012FBF40913E0150913F01609137
:10024000400170914101841B950BA60BB70B4091A7
:100250003A0150913B0160913C0170913D0184173E
:100260009507A607B707B0F28FEF9FEF0895FC013F
:10027000918D828D981731F0828DE80FF11D858D5B
:1002800090E008958FEF9FEF0895FC01918D228DEE
:10029000892F90E0805C9F4F821B91098F73992773
:1002A000089586E391E00E94450121E0892B09F43D
:1002B00020E0822F0895FC01848DDF01A80FB11D7D
:1002C000A35ABF4F2C91848D90E001968F7399278C
:1002D000848FA689B7892C93A089B1898C9183706A
:1002E00080648C93938D848D981306C00288F38963
:1002F000E02D80818F7D80830895EF92FF920F9390
:100300001F93CF93DF93EC0181E0888F9B8D8C8DC1
:10031000981305C0E889F989808185FD26C0F62EED
:100320000B8D10E00F5F1F4F0F731127E02E8C8D88
:10033000E8120CC00FB607FCFACFE889F989808172
:1003400085FFF5CFCE010E945B01F1CF8B8DFE01C1
:10035000E80FF11DE35AFF4FF0829FB7F8940B8F1F
:10036000EA89FB89808180620AC09FB7F894EE8990
:10037000FF896083E889F989808183708064808344
:100380009FBF81E090E0DF91CF911F910F91FF908F
:10039000EF900895CF93DF93EC01888D8823C9F007
:1003A000EA89FB89808185FD05C0A889B9898C917E
:1003B00086FD0FC00FB607FCF5CF808185FFF2CF19
:1003C000A889B9898C9185FFEDCFCE010E945B0190
:1003D000E7CFDF91CF91089590E0FC01E859FF4FFE
:1003E0002491FC01EC55FF4F3491FC01E057FF4F85
:1003F000E491EE2309F43CC0222339F1233091F03B
:1004000038F42130A9F0223001F584B58F7D12C077
:10041000273091F02830A1F02430B9F48091800089
:100420008F7D03C0809180008F77809380000DC006
:1004300084B58F7784BD09C08091B0008F7703C0E9
:100440008091B0008F7D8093B000F0E0EE0FFF1F31
:10045000E458FF4FA591B4919FB7F894611104C07F
:100460008C913095382302C0EC913E2B3C939FBF7A
:100470000895CF93DF93D82FC62F60E08AE00E94C3
:10048000EC01DEBD00000DB407FEFDCF8EB5CEBD84
:1004900000000DB407FEFDCF8EB561E08AE0DF916C
:1004A000CF910C94EC010E94F707FC0180819181AF
:1004B000009711F00C94970560E070E0CB0108956F
:1004C000FC0124813581232B31F421E06115710574
:1004D000A1F0FB0108C0FC018081918161157105CB
:1004E00031F421E0FC018081882339F005C00E94AD
:1004F000100821E0892B09F020E0822F08950F9346
:100500001F93CF93DF93EC0188819981009729F0A5
:100510002A813B812617370788F48B016F5F7F4F55
:100520000E943107009761F0998388831B830A83B7
:100530002C813D81232B11F4FC01108281E001C04C
:1005400080E0DF91CF911F910F910895EF92FF927C
:100550000F931F93CF93DF93EC017B018A01BA01C4
:100560000E947F022881398181110DC0211531053A
:1005700019F0C9010E94A806198218821D821C82E6
:100580001B821A8206C01D830C83B701C9010E9419
:100590001908CE01DF91CF911F910F91FF90EF903D
:1005A0000895BF92CF92DF92EF92FF920F931F9325
:1005B000CF93DF937C016B01EA0189012417350792
:1005C00020F48D2FE901042F182FD70111961C92CA
:1005D0001E9213961C921E92129715961C921E92B2
:1005E000149740E050E06CE171E0C7010E94A60260
:1005F000F60184819581C817D907C0F58017910746
:1006000008F48C01D601ED91FC911197E00FF11FD8
:10061000B08010826D917C916C0F7D1F611571050A
:1006200061F0FB0101900020E9F73197AF01461B13
:10063000570BC7010E94A60213C0F7018081918168
:10064000009711F00E94A806D70111961C921E92E5
:1006500015961C921E92149713961C921E92129736
:10066000D601ED91FC91E00FF11FB082C701DF913F
:10067000CF911F910F91FF90EF90DF90CF90BF909F
:100680000895EF92FF920F931F93CF93DF93CDB70F
:10069000DEB762970FB6F894DEBF0FBECDBF1A82E9
:1006A00019821C821B821E821D8240E050E06CE198
:1006B00071E0CE0101960E94A6020E94F7000D8112
:1006C0001E8197FD1CC08A309105C9F08F83188662
:1006D0000F5F1F4FB801CE0101960E947F02882351
:1006E00061F329813A818D819E81BE01695F7F4FCF
:1006F000820F931F0E9419081E830D83DECF012BEA
:1007000069F009811A816CE270E0C8010E94050855
:10071000009721F09C01201B310B02C02FEF3FEF0F
:1007200040E050E0BE016F5F7F4FCE0107960E9410
:10073000D1020D811E810115110569F0E980FA8051
:100740006CE270E0C7010E940508009721F0AC013F
:100750004E195F0902C04FEF5FEF4F5F5F4F980187
:10076000BE016F5F7F4FCE010D960E94D10286E3DE
:1007700091E00E94CA0168E171E0CE0107960E94F3
:100780006002882339F0CE010D960E94550280E068
:100790000E9439026DE171E0CE0107960E9460026D
:1007A000882339F0CE010D960E94550281E00E9407
:1007B000390262E271E0CE0107960E94600288234E
:1007C00039F0CE010D960E94550282E00E94390256
:1007D00067E271E0CE0107960E946002882339F03B
:1007E000CE010D960E94550283E00E9439028D854C
:1007F0009E850E94A8068F8198850E94A8068981FF
:100800009A810E94A80662960FB6F894DEBF0FBECA
:10081000CDBFDF91CF911F910F91FF90EF90089581
:100820000E94510181110C94410308951F920F926F
:100830000FB60F9211242F933F938F939F93AF93F3
:10084000BF938091320190913301A0913401B09116
:1008500035013091310123E0230F2D3720F401962B
:10086000A11DB11D05C026E8230F0296A11DB11DD3
:10087000209331018093320190933301A09334018E
:10088000B093350180912D0190912E01A0912F01FF
:10089000B09130010196A11DB11D80932D0190935F
:1008A0002E01A0932F01B0933001BF91AF919F9182
:1008B0008F913F912F910F900FBE0F901F90189521
:1008C0001F920F920FB60F9211242F933F934F93C5
:1008D0005F936F937F938F939F93AF93BF93EF93A8
:1008E000FF9386E391E00E945B01FF91EF91BF913E
:1008F000AF919F918F917F916F915F914F913F91B8
:100900002F910F900FBE0F901F9018951F920F926E
:100910000FB60F9211242F938F939F93EF93FF9312
:10092000E0914601F09147018081E0914C01F09106
:100930004D0182FD12C0908180914F018F5F8F73B6
:1009400020915001821751F0E0914F01F0E0EA5CF4
:10095000FE4F958F80934F0101C08081FF91EF91F1
:100960009F918F912F910F900FBE0F901F90189510
:10097000789484B5826084BD84B5816084BD85B57A
:10098000826085BD85B5816085BD80916E00816086
:1009900080936E001092810080918100826080932C
:1009A000810080918100816080938100809180002E
:1009B0008160809380008091B10084608093B10059
:1009C0008091B00081608093B00080917A00846053
:1009D00080937A0080917A00826080937A0080917F
:1009E0007A00816080937A0080917A008068809399
:1009F0007A001092C1008AE00E94870061E08AE0DC
:100A00000E94EC01E0914601F091470182E0808371
:100A1000E0914201F09143011082E0914401F09194
:100A2000450180E1808310924E01E0914A01F091EE
:100A30004B0186E08083E0914801F091490180817B
:100A400080618083E0914801F09149018081886054
:100A50008083E0914801F091490180818068808322
:100A6000E0914801F091490180818F7D8083CFB76B
:100A7000F89480912C01811124C0EAE9F0E084917E
:100A8000EEEAF0E09491E82FF0E0EE0FFF1FEA5756
:100A9000FF4FA591B491EC91E92321F461E08AE044
:100AA0000E94EC018AE00E9487008CB580618CBDB9
:100AB0008CB580648CBD8DE00E9487008BE00E9425
:100AC000870080912C018F5F80932C01CFBF0E9403
:100AD0001004FDCFE6E3F1E01382128288EE93E08A
:100AE000A0E0B0E084839583A683B7838AE091E099
:100AF0009183808385EC90E09587848784EC90E0F7
:100B00009787868780EC90E0918B808B81EC90E0DA
:100B1000938B828B82EC90E0958B848B86EC90E0BB
:100B2000978B868B118E128E138E148E08951F93C1
:100B3000FC0199278827BC01E89411911032E9F350
:100B4000193010F01E30C8F31B3251F01D3249F439
:100B5000689406C00E94BE05610F711D811D911D24
:100B6000119110531A30B0F33EF490958095709522
:100B700061957F4F8F4F9F4F1F910895592F482F99
:100B8000372F262F660F771F881F991F660F771F35
:100B9000881F991F620F731F841F951F660F771F91
:100BA000881F991F08952F923F924F925F926F92E4
:100BB0007F928F929F92AF92BF92CF92DF92EF92ED
:100BC000FF920F931F93CF93DF93CDB7DEB7CA1B6E
:100BD000DB0B0FB6F894DEBF0FBECDBF09942A8899
:100BE000398848885F846E847D848C849B84AA8441
:100BF000B984C884DF80EE80FD800C811B81AA81CE
:100C0000B981CE0FD11D0FB6F894DEBF0FBECDBF98
:100C1000ED010895EE0FFF1F0590F491E02D09946A
:100C20000F931F93CF93DF938230910510F482E0EE
:100C300090E0E091D501F091D60120E030E0A0E015
:100C4000B0E0309719F1408151810281138148173A
:100C50005907C8F08417950769F4109731F0129678
:100C60000C93129713961C9327C00093D5011093F1
:100C7000D60122C02115310519F04217530718F487
:100C80009A01BD01EF01DF01F801DBCF211531052C
:100C9000F9F0281B390B2430310580F48A819B81BF
:100CA0006115710521F0FB019383828304C0909349
:100CB000D6018093D501FE01329644C0FE01E20FB9
:100CC000F31F8193919322503109398328833AC0CD
:100CD0002091D3013091D401232B41F420910201C2
:100CE000309103013093D4012093D301209100016E
:100CF000309101012115310541F42DB73EB74091E6
:100D0000040150910501241B350BE091D301F091B2
:100D1000D401E217F307A0F42E1B3F0B2817390765
:100D200078F0AC014E5F5F4F2417350748F04E0F47
:100D30005F1F5093D4014093D3018193919302C0DC
:100D4000E0E0F0E0CF01DF91CF911F910F91089586
:100D5000CF93DF93009709F481C0FC01329713828F
:100D60001282A091D501B091D601109781F4208113
:100D70003181820F931F2091D3013091D401281724
:100D8000390751F5F093D401E093D30167C0ED0129
:100D900020E030E0CE17DF0740F44A815B819E01FE
:100DA00041155105F1F0EA01F5CFD383C2834081AB
:100DB0005181840F951FC817D90759F488819981EB
:100DC000840F951F0296918380838A819B819383F0
:100DD00082832115310529F4F093D601E093D501E2
:100DE0003DC0E901FB83EA8349915991C40FD51FA6
:100DF000EC17FD0761F480819181840F951F0296A5
:100E0000E90199838883828193819B838A83E0E0CF
:100E1000F0E012968D919C911397009719F0FD01C7
:100E2000DC01F7CF8D919C9111979D012E5F3F4F73
:100E3000820F931F2091D3013091D40128173907D5
:100E400069F4309729F41092D6011092D50102C0AE
:100E500013821282B093D401A093D301DF91CF917A
:100E60000895A0E0B0E0E7E3F7E00C94D705EC01CB
:100E7000009721F4CB010E941006B4C0FC01E60FDC
:100E8000F71F9C0122503109E217F30708F4A8C0AC
:100E9000D9010D911C91119706171707B0F0053075
:100EA000110508F49BC0C80104978617970708F43A
:100EB00095C002501109061B170B019311936D93F6
:100EC0007C93CF010E94A80689C05B01A01AB10AD9
:100ED0004C01800E911EA091D501B091D601612CDC
:100EE000712CE12CF12C109709F446C08D919C9146
:100EF0001197A815B905B1F56C0142E0C40ED11CDB
:100F0000CA14DB0478F14C018A189B08640142E0A2
:100F1000C40ED11C1296BC9012971396AC91B5E0FA
:100F2000CB16D10440F0B282A38391828082D90192
:100F30006D937C9309C00E5F1F4F800F911FF901C5
:100F400091838083EB2DFA2FE114F10431F0D70166
:100F50001396FC93EE93129741C0F093D601E09361
:100F6000D5013CC06816790608F43C017D01129653
:100F70000D90BC91A02DB7CF8091D3019091D40159
:100F800088169906E1F466167706C8F48091000188
:100F900090910101009741F48DB79EB740910401F3
:100FA00050910501841B950BE817F907C8F4F093DD
:100FB000D401E093D301F901718360830FC0CB01A9
:100FC0000E9410067C01009759F0A801BE010E9402
:100FD000FC07CE010E94A806C70104C0CE0102C0D2
:100FE00080E090E0CDB7DEB7EEE00C94F30581E051
:100FF00090E0F8940C942008FB01DC0102C0019001
:101000000D9241505040D8F70895FC018191861708
:1010100021F08823D9F7992708953197CF010895B2
:10102000FB01DC018D91019080190110D9F3990B1E
:101030000895FB01DC0101900D920020E1F7089575
:04104000F894FFCF52
:101044000000D7018000000000007D01A600D4004C
:10105400CA014501E3003701706F743100706F7489
:0C1064003200706F743300706F74340041
:107E0000112484B714BE81FFF0D085E080938100F7
:107E100082E08093C00088E18093C10086E0809377
:107E2000C20080E18093C4008EE0C9D0259A86E02C
:107E300020E33CEF91E0309385002093840096BBD3
:107E4000B09BFECF1D9AA8958150A9F7CC24DD24C4
:107E500088248394B5E0AB2EA1E19A2EF3E0BF2EE7
:107E6000A2D0813461F49FD0082FAFD0023811F036
:107E7000013811F484E001C083E08DD089C08234E0
:107E800011F484E103C0853419F485E0A6D080C0E4
:107E9000853579F488D0E82EFF2485D0082F10E0AE
:107EA000102F00270E291F29000F111F8ED06801E7
:107EB0006FC0863521F484E090D080E0DECF843638
:107EC00009F040C070D06FD0082F6DD080E0C81688
:107ED00080E7D80618F4F601B7BEE895C0E0D1E017
:107EE00062D089930C17E1F7F0E0CF16F0E7DF06D8
:107EF00018F0F601B7BEE89568D007B600FCFDCFD4
:107F0000A601A0E0B1E02C9130E011968C91119780
:107F100090E0982F8827822B932B1296FA010C0160
:107F200087BEE89511244E5F5F4FF1E0A038BF0790
:107F300051F7F601A7BEE89507B600FCFDCF97BE46
:107F4000E89526C08437B1F42ED02DD0F82E2BD052
:107F50003CD0F601EF2C8F010F5F1F4F84911BD097
:107F6000EA94F801C1F70894C11CD11CFA94CF0C13
:107F7000D11C0EC0853739F428D08EE10CD085E9AC
:107F80000AD08FE07ACF813511F488E018D01DD067
:107F900080E101D065CF982F8091C00085FFFCCF94
:107FA0009093C60008958091C00087FFFCCF809118
:107FB000C00084FD01C0A8958091C6000895E0E648
:107FC000F0E098E1908380830895EDDF803219F02E
:107FD00088E0F5DFFFCF84E1DECF1F93182FE3DFCA
:107FE0001150E9F7F2DF1F91089580E0E8DFEE27F6
:047FF000FF270994CA
:027FFE00040479
:0400000300007E007B
:00000001FF