:100000000C94EC000C9414010C9414010C94140145
:100010000C9414010C9414010C9414010C9414010C
:100020000C9414010C9414010C94E5040C945705E1
:100030000C9414010C9414010C9414010C941401EC
:100040000C9414010C9414010C9414010C941401DC
:100050000C94ED070C9414010C9414010C945D0A9B
:100060000C9414010C94BB070C9495070C94140188
:100070000C9414010C9414010C9414010C941401AC
:100080000C9414010C9414010C9414010C9414019C
:100090000C9414010C9414010C9414010C9414018C
:1000A0000C9414010C9414010C941401DC02DF0272
:1000B000CE02D202D602000300030003E302E702ED
:1000C000EB02F102F5020003FB021F0424042904E1
:1000D00033043D04870487048704470451045B0408
:1000E0006504720487047A040000000200090F000E
:1000F00000030401000C00000000000000000000EC
:1001000000000000000000080B00020202010009CC
:100110000400000102020000052400100105240172
:1001200001010424020605240600010705810310CD
:10013000004009040100020A000000070502024015
:1001400000000705830240000004030904120100B7
:1001500002EF020140412336800001010203014108
:10016000726475696E6F204C4C430041726475690E
:100170006E6F204C656F6E6172646F00000000004E
:10018000250028002B002E00310000000000240074
:1001900027002A002D003000040404040403040591
:1001A0000202020204030202020206060606060614
:1001B00004040202020404040802011040804010FA
:1001C000204080408008020401804020100201107D
:1001D000801020404020600C11241FBECFEFDAE0D9
:1001E000DEBFCDBF22E0A6E5B1E001C01D92A93679
:1001F000B207E1F711E0A0E0B1E0E4E9FEE102C0FE
:1002000005900D92A635B107D9F710E0CCEED0E0FD
:1002100004C02197FE010E94320DCB3ED107C9F7E1
:100220000E94880B0C94480F0C94000040915B01D5
:1002300050915C012091590130915A0142175307A6
:10024000B4F49091E8009570E1F39091E80092FD8C
:1002500019C08093F10080915B0190915C0101963F
:100260008F739927892B19F48EEF8093E800809182
:100270005B0190915C01019690935C0180935B011E
:1002800081E0089580E00895DF92EF92FF920F934E
:100290001F93CF93DF93D82EF92EE42E062F10E074
:1002A000C8010196880F0E94160183E00E94160182
:1002B000CD2DDF2D0C0F1D1FC017D10789F0E7FED4
:1002C00003C0FE01849101C088810E941601F82EAE
:1002D00080E00E9416018F2121968111EDCF01C08F
:1002E00081E0DF91CF911F910F91FF90EF90DF9010
:1002F0000895DF92EF92FF920F931F93CF93DF93B6
:10030000D82E8A017B01E40EF51EEB01CE15DF0528
:1003100071F0D7FE03C0FE01849101C088810E9464
:10032000160121968111F2CF8FEF9FEF01C0C80116
:10033000DF91CF911F910F91FF90EF90DF90089583
:10034000615030F02091F100FC0120830196F8CF3C
:10035000289884E6809361010895CF92DF92EF920E
:10036000FF920F931F93CF93DF936C017A018B0160
:10037000C0E0D0E0CE15DF0581F0D8016D918D0190
:10038000D601ED91FC910190F081E02DC601099517
:10039000892B11F02196EECF7E01C701DF91CF911D
:1003A0001F910F91FF90EF90DF90CF9008950895E7
:1003B00080E090E00895FC01538D448D252F30E0BE
:1003C000842F90E0821B930B541710F0CF96089562
:1003D00001970895FC01918D828D981761F0828DAF
:1003E000DF01A80FB11D5D968C91928D9F5F9F7369
:1003F000928F90E008958FEF9FEF0895FC01918D0B
:10040000828D981731F0828DE80FF11D858D90E077
:1004100008958FEF9FEF0895FC01918D228D892F14
:1004200090E0805C9F4F821B91098F7399270895FC
:1004300083E691E00E940C0221E0892B09F420E080
:10044000822F0895FC01848DDF01A80FB11DA35AEE
:10045000BF4F2C91848D90E001968F739927848FE4
:10046000A689B7892C93A089B1898C9182748C93C9
:10047000938D848D981306C00288F389E02D8081C6
:100480008F7D80830895EF92FF920F931F93CF93F8
:10049000DF93EC0181E0888F9B8D8C8D981305C0D4
:1004A000E889F989808185FD26C0F62E0B8D10E044
:1004B0000F5F1F4F0F731127E02E8C8DE8120CC0B9
:1004C0000FB607FCFACFE889F989808185FFF5CF5F
:1004D000CE010E942202F1CF8B8DFE01E80FF11DAB
:1004E000E35AFF4FF0829FB7F8940B8FEA89FB899C
:1004F0008081806209C09FB7F894EE89FF8960838C
:10050000E889F9898081827480839FBF81E090E0CF
:10051000DF91CF911F910F91FF90EF900895CF93AE
:10052000DF93EC01888D8823C9F0EA89FB898081FB
:1005300085FD05C0A889B9898C9186FD0FC00FB6CD
:1005400007FCF5CF808185FFF2CFA889B9898C910E
:1005500085FFEDCFCE010E942202E7CFDF91CF9140
:100560000895362F90E0FC01E851FF4F4491FC01C3
:10057000E954FE4F2491FC01E856FE4F84918823F4
:1005800009F452C04423E1F150E0FA013197EF3011
:10059000F105B0F5EA5AFF4F0C94320D90918000AE
:1005A0009F7707C0909180009F7D03C0909180004D
:1005B000977F9093800024C094B59F7702C094B534
:1005C0009F7D94BD1DC0909190009F7707C0909132
:1005D00090009F7D03C090919000977F9093900032
:1005E0000FC09091C0009F7703C09091C0009F7D85
:1005F0009093C00005C09091C200977F9093C20075
:10060000E82FF0E0EE0FFF1FE458FE4FA591B491E4
:100610009FB7F894311104C08C912095282302C013
:10062000EC912E2B2C939FBF08950F931F93CF9384
:10063000DF931F92CDB7DEB782E0898342E450E0BA
:1006400067E071E080E80E9479010E94490ADC01BC
:1006500012960D911C9113970115110589F0D8017F
:10066000ED91FC910280F381E02DBE016F5F7F4F21
:10067000C801099597FD04C0F80100851185ECCFEC
:1006800089810F90DF91CF911F910F910895EF9283
:10069000FF920F931F93CF93DF93CDB7DEB762978F
:1006A0000FB6F894DEBF0FBECDBF1A8219821C822E
:1006B0001B821E821D8240E050E065E571E0CE01A4
:1006C00001960E94ED0A0E946D090D811E8197FD21
:1006D0001CC08A309105C9F08F8318860F5F1F4FA9
:1006E000B801CE0101960E94C60A882361F32981D0
:1006F0003A818D819E81BE01695F7F4F820F931F7A
:100700000E94410F1E830D83DECF012B69F009810A
:100710001A816CE270E0C8010E942D0F009721F051
:100720009C01201B310B02C02FEF3FEF40E050E057
:10073000BE016F5F7F4FCE0107960E94180B0D819F
:100740001E810115110569F0E980FA806CE270E004
:10075000C7010E942D0F009721F0AC014E195F09CF
:1007600002C04FEF5FEF4F5F5F4F9801BE016F5FB9
:100770007F4FCE010D960E94180B83E691E00E94F8
:100780008F026EE371E0CE0107960E94A70A8823CC
:10079000B9F080E1809381001092800084ED90E3B5
:1007A000909387008093860083E1809381008DEC95
:1007B00094E0909358018093570181E080936F00FB
:1007C00064E471E0CE0107960E94A70A811110929D
:1007D0006F0069E471E0CE0107960E94A70A8823A2
:1007E00009F49AC08D859E85009719F00E949D0C92
:1007F00001C060E060935601F09056010F2D10E0AB
:1008000089E00E944E090115110511F460E004C051
:100810000F3F110529F461E089E00E94B1027CC01C
:10082000E1EFF0E0E4918E2F90E0FC013197EF30A2
:10083000F10508F06CC0EB59FF4F0C94320D84B5F4
:10084000806884BDF7BC68C084B5806284BDF8BC94
:1008500063C080918000806880938000109389003D
:100860000093880059C0809180008062809380004E
:1008700010938B0000938A004FC0809180008860A5
:100880008093800010938D0000938C0045C0809170
:1008900090008068809390001093990000939800D6
:1008A0003BC08091900080628093900010939B00E9
:1008B00000939A0031C080919000886080939000EE
:1008C00010939D0000939C0027C08091C000806819
:1008D0008093C0008091C0008F7B8093C000F09215
:1008E000CF001AC08091C00080628093C000F09257
:1008F000D00012C08091C20088608093C2008091B5
:10090000C2008B7F8093C200F092D20005C00038F5
:1009100011050CF080CF7ACF6DE471E0CE0107961F
:100920000E94A70A8823D1F08D859E85009719F033
:100930000E949D0C01C060E0609300018091000165
:100940008A3021F461E088E00E94B10280910001C8
:10095000843121F460E088E00E94B1028D859E859B
:100960000E94D00D8F8198850E94D00D89819A8137
:100970000E94D00D62960FB6F894DEBF0FBECDBFB9
:10098000DF91CF911F910F91FF90EF9008950E94FA
:10099000180281110C94470308956091560170E08C
:1009A00080E090E04AE00E940D0981E591E00E941C
:1009B000FB086091000170E080E090E04AE00E9456
:1009C0000D0983E591E00C94FB081F920F920FB67E
:1009D0000F9211248F939F938091E1009091E100F9
:1009E000937F9093E10083FF0FC01092E90091E0A4
:1009F0009093EB001092EC0092E39093ED00109234
:100A0000620198E09093F00082FF20C093E0909301
:100A1000E9009091F200992319F09AE39093E8008D
:100A200090915F01992339F090915F0191509093DB
:100A30005F01992389F190916101992339F0909197
:100A40006101915090936101992341F184FF10C09D
:100A50008091E2008E7E81608093E2008091E100CF
:100A60008F7E8093E100809160018E7E806111C055
:100A700080FF16C08091E2008E7E80618093E2004C
:100A80008091E1008E7E8093E100809160018E7EF6
:100A900081608093600104C05D9ACDCF289AD6CF43
:100AA0009F918F910F900FBE0F901F9018951F92DE
:100AB0000F920FB60F921124CF92DF92EF92FF9216
:100AC0000F931F932F933F934F935F936F937F9356
:100AD0008F939F93AF93BF93EF93FF93CF93DF9346
:100AE000CDB7DEB76C97DEBFCDBF1092E900809125
:100AF000E80083FFFBC168E0CE0145960E94A0019B
:100B000082EF8093E8008D8987FF05C09091E8000F
:100B100090FFFCCF03C09EEF9093E800982F907653
:100B200009F0C6C09E894F89588D2F89F88C911184
:100B30000CC0803829F480915E018093F10002C0DE
:100B40001092F1001092F10045C1913051F48111E1
:100B500041C14130510509F03DC180915E018D7F59
:100B60000BC0933061F4811135C14130510509F05A
:100B700031C180915E01826080935E012BC195300E
:100B800049F48091E80080FFFCCF822F8068809339
:100B9000E30020C1963009F05EC00B8D1C8D22E071
:100BA0001092E90010925C0110925B01F21232C0C7
:100BB00010925A01109259010E94150399E0BE014A
:100BC0006F5F7F4FDB01E92F1D92EA95E9F799836B
:100BD000FA8291E09E8390EA98879AEF9987209114
:100BE0005B0130915C01275F3F4F3C832B838D83FA
:100BF0001092E90010925C0110925B0110935A016F
:100C00000093590149E050E080E00E9479010E9480
:100C10001503E0C010935A01009359010E94490A3C
:100C2000DC0112960D911C9113970115110509F421
:100C3000BBC0D801ED91FC910480F581E02DBE018F
:100C40006B5E7F4FC8010995009709F0C7C0F80196
:100C500000851185EACF973009F445C1983021F419
:100C600081E08093F100B6C0993009F0B3C0837081
:100C700009F039C1E4E1F1E081E031E096E320815F
:100C8000211109C08EE78093EA001092EA008F8953
:100C9000809362019FC08093E9003093EB00219123
:100CA0002093EC009093ED008F5F873041F7EACFFF
:100CB0008B8D9C8D1092E90010925C0110925B016B
:100CC00090935A0180935901898D811153C08E8967
:100CD0009D89913A49F4813209F005C147E050E01D
:100CE00065E071E080E0BBC0913209F0FCC0833266
:100CF00069F48F89988DA0E0B0E080930101909312
:100D00000201A0930301B093040164C0803269F42E
:100D10008091E80082FFFCCF67E085E091E00E94CF
:100D2000A0018BEF8093E80055C0823209F052C0D9
:100D30008F8980930C01EEEFFFE7859194918B3FB3
:100D40009C4D19F0E0E0F8E002C0EEEFFAE080918F
:100D5000050190910601A0910701B0910801803B27
:100D60009440A105B10509F09EC080910C0180FF5F
:100D700079C099C00E94490AFC01028113810115C2
:100D8000110509F4B0C0D801ED91FC910190F081FA
:100D9000E02DBE016B5E7F4FC801099581111AC01D
:100DA000F80100851185EBCFF1E0FF1609F44EC084
:100DB000F3E0FF1298C08F89882309F44AC082307B
:100DC00089F440E860E18BE691E00E9444018823C9
:100DD00009F489C08EEF8093E80088C018161906C0
:100DE000CCF381C0813029F440E86BE08FE591E0DD
:100DF000ECCF833009F077C00E94490ADC011296DB
:100E0000ED90FC9013978E010F5F1F4F6801E11466
:100E1000F10479F0D701ED91FC910680F781E02D86
:100E2000B801C7010995080F111DF701E084F1848D
:100E3000EECFD8011C92F60101900020E9F731971E
:100E4000BF016C197D0940E0C601BFCF6DE471E0C0
:100E500002C069E471E0FB01449150E080E80E9427
:100E60007901B8CFEE3F2AE0F20751F080819181FD
:100E70008737A7E79A0721F09093FF0A8093FE0A2D
:100E800087E797E7918380838091600080935D017D
:100E90009BE088E10FB6F894A895809360000FBEA0
:100EA0009093600097CF808191818737974709F0B1
:100EB00091CFA895809160008861809360008091B7
:100EC0005D0180936000EE3FBAE0FB0739F080914E
:100ED000FE0A9091FF0A918380837CCF1092FF0AD3
:100EE0001092FE0A77CF81E28093EB006C960FB6EA
:100EF000F894DEBF0FBECDBFDF91CF91FF91EF9190
:100F0000BF91AF919F918F917F916F915F914F9121
:100F10003F912F911F910F91FF90EF90DF90CF9015
:100F20000F900FBE0F901F9018951F920F920FB643
:100F30000F9211242F933F934F935F936F937F935F
:100F40008F939F93AF93BF93EF93FF9383E691E0CB
:100F50000E942202FF91EF91BF91AF919F918F91DB
:100F60007F916F915F914F913F912F910F900FBEA5
:100F70000F901F9018951F920F920FB60F92112489
:100F80002F938F939F93EF93FF93E0917301F091D1
:100F900074018081E0917901F0917A0182FD12C0A3
:100FA000908180917C018F5F8F7320917D018217EA
:100FB00051F0E0917C01F0E0ED59FE4F958F809368
:100FC0007C0101C08081FF91EF919F918F912F91C2
:100FD0000F900FBE0F901F9018951F920F920FB693
:100FE0000F9211242F933F934F935F936F937F93AF
:100FF0008F939F93AF93BF93EF93FF93E09157012C
:10100000F09158010995FF91EF91BF91AF919F9198
:101010008F917F916F915F914F913F912F910F90A1
:101020000FBE0F901F90189520916201211103C0EF
:101030008FEF9FEF08955FB7F89422E02093E900C7
:101040002091F20030E01216130614F421E030E093
:10105000422FFC0184E6415038F0289880936101CA
:101060009091F1009193F7CF2115310521F08091F6
:10107000F200882319F05FBFC90108958BE68093C1
:10108000E800F9CF2FB7F89483E08093E9009091BE
:10109000E800892F807295FF04C09091F20080E4EF
:1010A000891B2FBF0895CF93DF931F92CDB7DEB773
:1010B0006983DC01ED91FC910280F381E02D41E038
:1010C00050E0BE016F5F7F4F09950F90DF91CF9188
:1010D000089583E08093E9008091F200882319F05D
:1010E0008AE38093E80008950E94420890E0089502
:1010F000CF93DF931F92CDB7DEB7FC018485958532
:1011000097FD05C02FEF3FEF358724870BC0CE0139
:1011100001960E941408019719F4898190E002C099
:101120008FEF9FEF0F90DF91CF9108950F931F9353
:10113000CF93DF931F92CDB7DEB78C01FC0184857E
:10114000958597FF0EC0CE0101960E941408019765
:1011500019F4898190E002C08FEF9FEFF801958725
:101160008487F801848595850F90DF91CF911F9139
:101170000F910895FC018485958597FD0BC09FB75D
:10118000F89482E08093E9008091F2009FBF90E0A4
:10119000019608959FB7F89482E08093E9008091CA
:1011A000F2009FBF90E008953FB7F894809101024C
:1011B00090910202A0910302B091040226B5A89B6F
:1011C00005C02F3F19F00196A11DB11D3FBFBA2FD9
:1011D000A92F982F8827820F911DA11DB11DBC0139
:1011E000CD0142E0660F771F881F991F4A95D1F7FE
:1011F00008950E941F0F009769F0FC0101900020E4
:10120000E9F73197AF01481B590BBC0183E691E028
:101210000C94AD0180E090E008958F929F92AF9280
:10122000BF920F931F93CF93DF93CDB7DEB7A197F4
:101230000FB6F894DEBF0FBECDBF19A2423008F43E
:101240004AE08E010F5D1F4F842E912CA12CB12CF2
:10125000A50194010E94100DE62FB901CA010150A9
:101260001109EA3014F4E05D01C0E95CD801EC93A7
:10127000232B242B252B61F7C8010E94FB08A19684
:101280000FB6F894DEBF0FBECDBFDF91CF911F9197
:101290000F91BF90AF909F908F90089590E0FC01C8
:1012A000E954FE4F2491FC01E856FE4F84918823B7
:1012B00099F090E0880F991FFC01E657FE4FA59129
:1012C000B491FC01E458FE4F859194918FB7F89446
:1012D000EC91E22BEC938FBF08952FB7F894809197
:1012E000110290911202A0911302B09114022FBF2B
:1012F00080936B0190936C01A0936D01B0936E018C
:1013000083E691E00E94EA0197FF26C02FB7F89488
:101310008091110290911202A0911302B0911402D7
:101320002FBF40916B0150916C0160916D017091E4
:101330006E01841B950BA60BB70B40916701509172
:1013400068016091690170916A0184179507A60789
:10135000B707B0F28FEF9FEF0895CF92DF92EF9231
:10136000FF920E94D4086B017C010E94D408DC012A
:10137000CB018C199D09AE09BF09883E9340A10598
:10138000B10598F3FF90EF90DF90CF9008958F9282
:101390009F92AF92BF92CF92DF92EF92FF920F9304
:1013A0001F93CF93DF936C017B018A0180910C0125
:1013B000882309F458C080916201882309F453C03E
:1013C0008091600180FF05C08091E0008260809381
:1013D000E000E801B12C8AEFA82E93E0892E2AE3E1
:1013E000922E209711F4BB20B9F10E94420881117E
:1013F00006C0AA94AA20B9F10E94AD09F2CF282F05
:1014000030E0C217D3070CF48C2F9FB7F89480926A
:10141000E9002091E80025FF1DC0282F30E0C21B05
:10142000D30BF701815020F041914093F100FACFA6
:10143000E20EF31EBB2019F09092E8000AC08091E2
:10144000E80085FD07C09092E800BB24B394209784
:1014500009F0B12C9FBFC5CF5D9884E680935F01F2
:101460001016110644F081E090E0F6019383828328
:1014700080E090E001C0C801DF91CF911F910F91F2
:10148000FF90EF90DF90CF90BF90AF909F908F90A4
:1014900008958091090281110DC082E080930502B8
:1014A00084E080930602109208021092070281E005
:1014B0008093090285E092E008951F920F920FB683
:1014C0000F9211242F933F938F939F93AF93BF93CA
:1014D0008091110290911202A0911302B091140216
:1014E0003091000223E0230F2D3720F40196A11D37
:1014F000B11D05C026E8230F0296A11DB11D209342
:1015000000028093110290931202A0931302B093F1
:1015100014028091010290910202A0910302B09105
:1015200004020196A11DB11D809301029093020255
:10153000A0930302B0930402BF91AF919F918F914A
:101540003F912F910F900FBE0F901F901895FC01A7
:1015500024813581232B31F421E061157105A1F03F
:10156000FB0108C0FC01808191816115710531F496
:1015700021E0FC018081882339F005C00E94380FEA
:1015800021E0892B09F020E0822F08950F931F930B
:10159000CF93DF93EC0188819981009729F02A810C
:1015A0003B812617370788F48B016F5F7F4F0E94BE
:1015B000590E009761F0998388831B830A832C81DD
:1015C0003D81232B11F4FC01108281E001C080E0F9
:1015D000DF91CF911F910F910895EF92FF920F939A
:1015E0001F93CF93DF93EC017B018A01BA010E9424
:1015F000C60A2881398181110DC02115310519F0E4
:10160000C9010E94D00D198218821D821C821B8282
:101610001A8206C01D830C83B701C9010E94410FC5
:10162000CE01DF91CF911F910F91FF90EF90089520
:10163000BF92CF92DF92EF92FF920F931F93CF93BF
:10164000DF937C016B01EA0189012417350720F43F
:101650008D2FE901042F182FD70111961C921E928D
:1016600013961C921E92129715961C921E92149716
:1016700040E050E065E571E0C7010E94ED0AF60127
:1016800084819581C817D907C0F58017910708F4A0
:101690008C01D601ED91FC911197E00FF11FB08004
:1016A00010826D917C916C0F7D1F6115710561F049
:1016B000FB0101900020E9F73197AF01461B570B62
:1016C000C7010E94ED0A13C0F70180819181009744
:1016D00011F00E94D00DD70111961C921E92159602
:1016E0001C921E92149713961C921E921297D6016A
:1016F000ED91FC91E00FF11FB082C701DF91CF9116
:101700001F910F91FF90EF90DF90CF90BF900895C1
:10171000789484B5826084BD84B5816084BD85B5CC
:10172000826085BD85B5816085BD80916E008160D8
:1017300080936E001092810080918100826080937E
:101740008100809181008160809381008091800080
:1017500081608093800080919100826080939100ED
:1017600080919100816080939100809190008160D0
:10177000809390008091C10084608093C10080912B
:10178000C10082608093C1008091C100816080931C
:10179000C1008091C30081608093C3008091C0002C
:1017A00082608093C0008091C20081608093C200FB
:1017B00080917A00846080937A0080917A008260C0
:1017C00080937A0080917A00816080937A00809182
:1017D0007A00806880937A001092620110925E0114
:1017E000109260018091D70081608093D70080EAD9
:1017F0008093D80089B5806189BD89B5826089BD33
:1018000009B400FEFDCF0E94AD098091D8008F7C05
:1018100080618093D8008091E000807F8093E00019
:101820008091E1008E7E8093E1008DE08093E20064
:10183000559A209AE0917301F091740182E08083BF
:10184000E0916F01F09170011082E0917101F091CF
:10185000720180E1808310927B01E0917701F09129
:10186000780186E08083E0917501F09176018081B6
:1018700080618083E0917501F091760180818860BC
:101880008083E0917501F09176018081806880838A
:10189000E0917501F091760180818F7D808389E0F0
:1018A0000E944E0988E00E944E0960E088E00E9494
:1018B000B10260E089E00E94B1020E94C704FDCF3E
:1018C000E5E1F2E01382128288EE93E0A0E0B0E05E
:1018D00084839583A683B7832EE131E0318320830F
:1018E0002FEF3FEF35872487E3E6F1E01382128282
:1018F00084839583A683B78380E391E0918380837B
:101900008DEC90E0958784878CEC90E097878687B4
:1019100088EC90E0918B808B89EC90E0938B828BAC
:101920008AEC90E0958B848B8EEC90E0978B868B85
:10193000118E128E138E148E08951F93FC01992719
:101940008827BC01E89411911032E9F3193010F0A6
:101950001E30C8F31B3251F01D3249F4689406C0A2
:101960000E94C40C610F711D811D911D11911053B6
:101970001A30B0F33EF490958095709561957F4F45
:101980008F4F9F4F1F910895592F482F372F262F84
:10199000660F771F881F991F660F771F881F991F73
:1019A000620F731F841F951F660F771F881F991F73
:1019B00008952F923F924F925F926F927F928F92F3
:1019C0009F92AF92BF92CF92DF92EF92FF920F93CE
:1019D0001F93CF93DF93CDB7DEB7CA1BDB0B0FB6D8
:1019E000F894DEBF0FBECDBF09942A883988488895
:1019F0005F846E847D848C849B84AA84B984C8842B
:101A0000DF80EE80FD800C811B81AA81B981CE0F21
:101A1000D11D0FB6F894DEBF0FBECDBFED01089506
:101A2000A1E21A2EAA1BBB1BFD010DC0AA1FBB1FE2
:101A3000EE1FFF1FA217B307E407F50720F0A21B54
:101A4000B30BE40BF50B661F771F881F991F1A94C1
:101A500069F760957095809590959B01AC01BD01EB
:101A6000CF010895EE0FFF1F0590F491E02D09942A
:101A70000F931F93CF93DF938230910510F482E090
:101A800090E0E0916702F091680220E030E0A0E091
:101A9000B0E0309719F140815181028113814817DC
:101AA0005907C8F08417950769F4109731F012961A
:101AB0000C93129713961C9327C000936702109300
:101AC000680222C02115310519F04217530718F496
:101AD0009A01BD01EF01DF01F801DBCF21153105CE
:101AE000F9F0281B390B2430310580F48A819B8161
:101AF0006115710521F0FB019383828304C09093EB
:101B0000680280936702FE01329644C0FE01E20F34
:101B1000F31F8193919322503109398328833AC06E
:101B20002091650230916602232B41F420910F0130
:101B300030911001309366022093650220910D01CF
:101B400030910E012115310541F42DB73EB740917A
:101B5000110150911201241B350BE0916502F091A7
:101B60006602E217F307A0F42E1B3F0B2817390774
:101B700078F0AC014E5F5F4F2417350748F04E0FE9
:101B80005F1F50936602409365028193919302C058
:101B9000E0E0F0E0CF01DF91CF911F910F91089528
:101BA000CF93DF93009709F481C0FC013297138231
:101BB0001282A0916702B0916802109781F420818F
:101BC0003181820F931F20916502309166022817A0
:101BD000390751F5F0936602E093650267C0ED01A5
:101BE00020E030E0CE17DF0740F44A815B819E01A0
:101BF00041155105F1F0EA01F5CFD383C28340814D
:101C00005181840F951FC817D90759F4888199818C
:101C1000840F951F0296918380838A819B81938391
:101C200082832115310529F4F0936802E09367025D
:101C30003DC0E901FB83EA8349915991C40FD51F47
:101C4000EC17FD0761F480819181840F951F029646
:101C5000E90199838883828193819B838A83E0E071
:101C6000F0E012968D919C911397009719F0FD0169
:101C7000DC01F7CF8D919C9111979D012E5F3F4F15
:101C8000820F931F20916502309166022817390751
:101C900069F4309729F4109268021092670202C02A
:101CA00013821282B0936602A0936502DF91CF91F6
:101CB0000895A0E0B0E0EFE5FEE00C94DD0CEC014F
:101CC000009721F4CB010E94380DB4C0FC01E60F4F
:101CD000F71F9C0122503109E217F30708F4A8C04E
:101CE000D9010D911C91119706171707B0F0053017
:101CF000110508F49BC0C80104978617970708F4DC
:101D000095C002501109061B170B019311936D9397
:101D10007C93CF010E94D00D89C05B01A01AB10A4B
:101D20004C01800E911EA0916702B0916802612C57
:101D3000712CE12CF12C109709F446C08D919C91E7
:101D40001197A815B905B1F56C0142E0C40ED11C7C
:101D5000CA14DB0478F14C018A189B08640142E044
:101D6000C40ED11C1296BC9012971396AC91B5E09C
:101D7000CB16D10440F0B282A38391828082D90134
:101D80006D937C9309C00E5F1F4F800F911FF90167
:101D900091838083EB2DFA2FE114F10431F0D70108
:101DA0001396FC93EE93129741C0F0936802E09370
:101DB00067023CC06816790608F43C017D01129662
:101DC0000D90BC91A02DB7CF8091650290916602D5
:101DD00088169906E1F466167706C8F480910D011D
:101DE00090910E01009741F48DB79EB7409111017B
:101DF00050911201841B950BE817F907C8F4F09372
:101E00006602E0936502F901718360830FC0CB0124
:101E10000E94380D7C01009759F0A801BE010E9474
:101E2000240FCE010E94D00DC70104C0CE0102C014
:101E300080E090E0CDB7DEB7EEE00C94F90C81E0E5
:101E400090E0F8940C94480FFB01DC0102C0019073
:101E50000D9241505040D8F70895FC0181918617AA
:101E600021F08823D9F7992708953197CF01089554
:101E7000FB01DC018D91019080190110D9F3990BC0
:101E80000895FB01DC0101900D920020E1F7089517
:041E9000F894FFCFF4
:101E94000AFFFFFFFF00E1000000000000000069EE
:101EA40002800000C180810000000000000053088F
:101EB400C70974086908BA08780896080000000081
:101EC4004302AD01DB018F020C02EA01FE017374CF
:101ED4006172740073746F700070776D006469725E
:061EE400002C000D0A00B5
:00000001FF
