:100000000C9435000C945D000C945D000C945D0024
:100010000C945D000C945D000C945D000C945D00EC
:100020000C945D000C945D000C945D000C945D00DC
:100030000C945D000C9408050C945D000C945D001C
:100040000C9466040C945D000C94D6040C94B004DB
:100050000C945D000C945D000C945D000C945D00AC
:100060000C945D000C945D00AA0511241FBECFEF17
:10007000D8E0DEBFCDBF11E0A0E0B1E0EAEEF5E1EF
:1000800002C005900D92A633B107D9F721E0A6E38F
:10009000B1E001C01D92A63EB207E1F710E0C5E352
:1000A000D0E004C02197FE010E94DD08C433D107CF
:1000B000C9F70E942F050C94F30A0C9400000895D0
:1000C000CF92DF92EF92FF920F931F93CF93DF9324
:1000D0006C017A018B01C0E0D0E0CE15DF0581F024
:1000E000D8016D918D01D601ED91FC910190F081C7
:1000F000E02DC6010995892B11F02196EECF7E01E6
:10010000C701DF91CF911F910F91FF90EF90DF908A
:10011000CF90089580E090E00895FC01538D448DC8
:10012000252F30E0842F90E0821B930B541710F0A2
:10013000CF96089501970895FC01918D828D9817AF
:1001400061F0828DDF01A80FB11D5D968C91928DBB
:100150009F5F9F73928F90E008958FEF9FEF0895B8
:100160002FB7F8948091410190914201A0914301F1
:10017000B09144012FBF80934D0190934E01A09305
:100180004F01B093500185E491E00E949C0097FFDD
:1001900026C02FB7F8948091410190914201A0911F
:1001A0004301B09144012FBF40914D0150914E0148
:1001B00060914F0170915001841B950BA60BB70BFA
:1001C0004091490150914A0160914B0170914C015D
:1001D00084179507A607B707B0F28FEF9FEF089532
:1001E000FC01918D828D981731F0828DE80FF11D01
:1001F000858D90E008958FEF9FEF0895FC01918D1C
:10020000228D892F90E0805C9F4F821B91098F7314
:100210009927089585E491E00E94FE0021E0892B52
:1002200009F420E0822F0895FC01848DDF01A80FDE
:10023000B11DA35ABF4F2C91848D90E001968F730E
:100240009927848FA689B7892C93A089B1898C912D
:10025000837080648C93938D848D981306C002887C
:10026000F389E02D80818F7D80830895EF92FF9246
:100270000F931F93CF93DF93EC0181E0888F9B8DC9
:100280008C8D981305C0E889F989808185FD26C089
:10029000F62E0B8D10E00F5F1F4F0F731127E02E0E
:1002A0008C8DE8120CC00FB607FCFACFE889F989EB
:1002B000808185FFF5CFCE010E941401F1CF8B8D97
:1002C000FE01E80FF11DE35AFF4FF0829FB7F8944B
:1002D0000B8FEA89FB89808180620AC09FB7F894FE
:1002E000EE89FF896083E889F98980818370806461
:1002F00080839FBF81E090E0DF91CF911F910F91AC
:10030000FF90EF900895CF93DF93EC01888D8823C1
:10031000C9F0EA89FB89808185FD05C0A889B98972
:100320008C9186FD0FC00FB607FCF5CF808185FF4D
:10033000F2CFA889B9898C9185FFEDCFCE010E94BB
:100340001401E7CFDF91CF910895009769F0FC0188
:1003500001900020E9F73197AF01481B590BBC0110
:1003600085E491E00C94600080E090E008950E94A4
:10037000CA0A0F931F93CF93DF93EC018881998171
:10038000009729F02A813B812617370788F48B01D3
:100390006F5F7F4F0E94040A009761F09983888302
:1003A0001B830A832C813D81232B11F4FC011082D5
:1003B00081E001C080E0DF91CF911F910F910895FE
:1003C000EF92FF920F931F93CF93DF93EC017B018A
:1003D0008A01BA010E94B9012881398181110DC0B9
:1003E0002115310519F0C9010E947B091982188273
:1003F0001D821C821B821A8206C01D830C83B701DA
:10040000C9010E94EC0ACE01DF91CF911F910F919B
:10041000FF90EF900895FF920F931F93CF93DF9378
:10042000CDB7DEB72C970FB6F894DEBF0FBECDBFA9
:1004300018861F821A8619861C861B8640E050E0AB
:1004400065E371E0CE0107960E94E0010E94B000D2
:100450000B851C8597FD1CC08A309105C9F08983E6
:100460001A820F5F1F4FB801CE0107960E94B90193
:10047000882361F32F8138858B859C85BE016F5F52
:100480007F4F820F931F0E94EC0A1C870B87DECFE1
:10049000012B71F00F8118856CE270E0C8010E9499
:1004A000D80A009729F09C01201B310B890102C05A
:1004B0000FEF1FEF1A8219821C821B821E821D827F
:1004C00040E050E065E371E0CE0101960E94E0015A
:1004D0008B859C85009771F18017910708F48C013A
:1004E000EF81F885E00FF11FF08010826F81788531
:1004F0006115710569F0FB0101900020E9F7319762
:10050000AF01461B570BCE0101960E94E0010CC0C3
:1005100089819A81009711F00E947B091A821982C1
:100520001E821D821C821B828F819885FC01E00F38
:10053000F11FF0828F819885009741F069817A815F
:100540006115710509F059C00E947B0989819A8162
:1005500098878F838B819C819A8789878D819E81E3
:100560009C878B871A82198289819A810E947B09D4
:1005700085E491E00E9483018B859C85892BF9F0AD
:100580006CE171E08F8198850E94E30A892BB9F4B0
:1005900080E1809381001092800084ED90E390933D
:1005A00087008093860083E18093810082E193E05D
:1005B00090933B0180933A0181E080936F008B859B
:1005C0009C85892B51F062E271E08F8198850E94B1
:1005D000E30A892B11F410926F008F8198850E9495
:1005E0007B092C960FB6F894DEBF0FBECDBFDF910E
:1005F000CF911F910F91FF90089549855A852D81C4
:100600003E814217530708F49FCF0E94EC0A8D8168
:100610009E819C878B87A8CF0E940A0181110C9430
:100620000B0208952F923F924F925F926F927F92AA
:100630008F929F92AF92BF92CF92DF92EF92FF92F2
:100640000F931F93CF93DF93CDB7DEB7A2970FB66B
:10065000F894DEBF0FBECDBF80E480937C00809114
:100660007A00806480937A0080917A0086FDFCCFC6
:10067000609178008091790070E0782B072E000C53
:10068000880B990B0E9480062AE038E240EA5BE37F
:100690000E94DF0620E030E048EC52E40E94DF06D2
:1006A000609336017093370180933801909339013C
:1006B0000E94220624E030E040E050E00E949D07C6
:1006C00062507109810991090E94800620913601CA
:1006D0003091370140913801509139010E9438081A
:1006E0006B017C014B015C01609336017093370113
:1006F00080933801909339019B01AC010E94D80886
:10070000882319F087E291E01AC026013701E894A6
:1007100077F82FEF3FEF4FE75FE7C301B2010E9489
:10072000D80881110FC02FEF3FEF4FE75FE7C301FC
:10073000B2010E94790618162CF48BE291E00E9417
:10074000A501A7C02FEF3FEF4FE75FE4C701B60158
:100750000E94D30818161CF48FE291E0F0CF2FEF1F
:100760003FEF4FE75FECC701B6010E94790687FDB6
:10077000F3CF20E030E0A901C701B6010E9479065D
:1007800087FF0BC06DE285E491E00E9436014601CF
:100790005701B7FAB094B7F8B0942AE037ED43EABE
:1007A0005BE3C501B4010E9438084B015C010E9463
:1007B000A4086B017C010E947E069B01AC01C5016F
:1007C000B4010E9437084B015C0119A28E010F5D34
:1007D0001F4F0AA3612E2AE0222E312C412C512CCE
:1007E000C701B601A20191010E94060869017A01C0
:1007F000605DF80162938F01232B242B252B81F759
:10080000CF010E94A5016EE285E491E00E943601CD
:1008100083E0F82E9AE0292E312C412C512CFA94A9
:10082000FF20B9F120E030E040E251E4C501B4011D
:100830000E94DF064B015C010E94A4089B0140E07E
:1008400050E019A20AA1162D762EC32ED42EE52E25
:10085000CA01B901A20191010E940608605DF80178
:1008600062938F01211531054105510589F7CF01AB
:100870000E94A501672D7C2D8D2D9E2D0E947E0648
:100880009B01AC01C501B4010E9437084B015C011A
:10089000C6CF83E391E00E94A501A2960FB6F8941B
:1008A000DEBF0FBECDBFDF91CF911F910F91FF90A3
:1008B000EF90DF90CF90BF90AF909F908F907F9000
:1008C0006F905F904F903F902F9008951F920F92DE
:1008D0000FB60F9211242F933F938F939F93AF9353
:1008E000BF938091410190914201A0914301B09149
:1008F00044013091400123E0230F2D3720F401966D
:10090000A11DB11D05C026E8230F0296A11DB11D32
:10091000209340018093410190934201A0934301B1
:10092000B093440180913C0190913D01A0913E0122
:10093000B0913F010196A11DB11D80933C019093A0
:100940003D01A0933E01B0933F01BF91AF919F91B4
:100950008F913F912F910F900FBE0F901F90189580
:100960001F920F920FB60F9211242F933F934F9324
:100970005F936F937F938F939F93AF93BF93EF9307
:10098000FF9385E491E00E941401FF91EF91BF91E4
:10099000AF919F918F917F916F915F914F913F9117
:1009A0002F910F900FBE0F901F9018951F920F92CE
:1009B0000FB60F9211242F938F939F93EF93FF9372
:1009C000E0915501F09156018081E0915B01F09139
:1009D0005C0182FD12C0908180915E018F5F8F73F8
:1009E00020915F01821751F0E0915E01F0E0EB5B36
:1009F000FE4F958F80935E0101C08081FF91EF9142
:100A00009F918F912F910F900FBE0F901F9018956F
:100A10001F920F920FB60F9211242F933F934F9373
:100A20005F936F937F938F939F93AF93BF93EF9356
:100A3000FF93E0913A01F0913B010995FF91EF910D
:100A4000BF91AF919F918F917F916F915F914F91E6
:100A50003F912F910F900FBE0F901F901895789493
:100A600084B5826084BD84B5816084BD85B58260B3
:100A700085BD85B5816085BD80916E008160809364
:100A80006E001092810080918100826080938100CD
:100A900080918100816080938100809180008160DD
:100AA000809380008091B10084608093B100809138
:100AB000B00081608093B00080917A008460809360
:100AC0007A0080917A00826080937A0080917A0027
:100AD000816080937A0080917A00806880937A00A8
:100AE0001092C100E0915501F091560182E080839F
:100AF000E0915101F09152011082E0915301F09187
:100B0000540180E1808310925D01E0915901F091E0
:100B10005A0186E08083E0915701F091580180816D
:100B200080618083E0915701F09158018081886055
:100B30008083E0915701F091580180818068808323
:100B4000E0915701F091580180818F7D80830E9450
:100B50000C03FDCFE5E4F1E01382128288EE93E00E
:100B6000A0E0B0E084839583A683B7838EE091E014
:100B70009183808385EC90E09587848784EC90E076
:100B80009787868780EC90E0918B808B81EC90E05A
:100B9000938B828B82EC90E0958B848B86EC90E03B
:100BA000978B868B118E128E138E148E08958F92D2
:100BB0009F92AF92BF92CF92DF92EF92FF92CF932C
:100BC000DF93EC01688179818A819B8161157105D0
:100BD0008105910521F464E279ED8BE597E02DE143
:100BE00033EF41E050E00E949D0749015A019B010B
:100BF000AC01A7EAB1E40E94BC076B017C01ACEE3A
:100C0000B4EFA50194010E94CA07DC01CB018C0D51
:100C10009D1DAE1DBF1DB7FF03C00197A109B048C0
:100C200088839983AA83BB83BC01CD019F77DF9121
:100C3000CF91FF90EF90DF90CF90BF90AF909F90BB
:100C40008F9008958F929F92AF92BF92CF92DF9232
:100C5000EF92FF9260910001709101018091020179
:100C600090910301611571058105910521F464E2FC
:100C700079ED8BE597E02DE133EF41E050E00E9404
:100C80009D0749015A019B01AC01A7EAB1E40E940A
:100C9000BC076B017C01ACEEB4EFA50194010E948E
:100CA000CA07DC01CB018C0D9D1DAE1DBF1DB7FF1A
:100CB00003C00197A109B0488093000190930101FE
:100CC000A0930201B0930301BC01CD019F77FF9077
:100CD000EF90DF90CF90BF90AF909F908F9008954E
:100CE00060930001709301018093020190930301CE
:100CF00008950E94BB0608F481E00895E89409C0B5
:100D000097FB3EF490958095709561957F4F8F4F3E
:100D10009F4F9923A9F0F92F96E9BB279395F69554
:100D2000879577956795B795F111F8CFFAF4BB0FD2
:100D300011F460FF1BC06F5F7F4F8F4F9F4F16C036
:100D4000882311F096E911C0772321F09EE8872FC0
:100D5000762F05C0662371F096E8862F70E060E07C
:100D60002AF09A95660F771F881FDAF7880F9695F5
:100D7000879597F90895990F0008550FAA0BE0E899
:100D8000FEEF16161706E807F907C0F0121613064D
:100D9000E407F50798F0621B730B840B950B39F48D
:100DA0000A2661F0232B242B252B21F408950A26F3
:100DB00009F4A140A6958FEF811D811D08950E9421
:100DC000F2060C9463070E94550738F00E945C07F6
:100DD00020F0952311F00C944C070C945207112429
:100DE0000C9497070E94740770F3959FC1F3950FB9
:100DF00050E0551F629FF001729FBB27F00DB11D9F
:100E0000639FAA27F00DB11DAA1F649F6627B00D2E
:100E1000A11D661F829F2227B00DA11D621F739F17
:100E2000B00DA11D621F839FA00D611D221F749F25
:100E30003327A00D611D231F849F600D211D822F6C
:100E4000762F6A2F11249F5750409AF0F1F0882393
:100E50004AF0EE0FFF1FBB1F661F771F881F9150C0
:100E60005040A9F79E3F510580F00C944C070C941C
:100E700097075F3FE4F3983ED4F38695779567959F
:100E8000B795F795E7959F5FC1F7FE2B880F911DEA
:100E90009695879597F9089597F99F6780E870E090
:100EA00060E008959FEF80EC089500240A941616E0
:100EB000170618060906089500240A941216130648
:100EC000140605060895092E0394000C11F48823D6
:100ED00052F0BB0F40F4BF2B11F460FF04C06F5FF2
:100EE0007F4F8F4F9F4F089557FD9058440F551FC8
:100EF00059F05F3F71F04795880F97FB991F61F09C
:100F00009F3F79F087950895121613061406551F12
:100F1000F2CF4695F1DF08C0161617061806991F7E
:100F2000F1CF86957105610508940895E894BB2773
:100F300066277727CB0197F90895052E97FB1EF4B6
:100F400000940E94B40757FD07D00E94060807FCD2
:100F500003D04EF40C94B4075095409530952195EC
:100F60003F4F4F4F5F4F08959095809570956195D5
:100F70007F4F8F4F9F4F08950E942808A59F900D87
:100F8000B49F900DA49F800D911D11240895B7FF6B
:100F90000C94BC070E94BC07821B930B08952F92F0
:100FA0003F924F925F926F927F928F929F92AF92F9
:100FB000BF92CF92DF92EF92FF920F931F93CF9346
:100FC000DF93CDB7DEB7CA1BDB0B0FB6F894DEBFDD
:100FD0000FBECDBF09942A88398848885F846E8403
:100FE0007D848C849B84AA84B984C884DF80EE804D
:100FF000FD800C811B81AA81B981CE0FD11D0FB656
:10100000F894DEBF0FBECDBFED010895A1E21A2E08
:10101000AA1BBB1BFD010DC0AA1FBB1FEE1FFF1F9C
:10102000A217B307E407F50720F0A21BB30BE40BEC
:10103000F50B661F771F881F991F1A9469F7609533
:101040007095809590959B01AC01BD01CF010895ED
:10105000A29FB001B39FC001A39F700D811D1124F9
:10106000911DB29F700D811D1124911D089550583E
:10107000BB27AA270E944F080C9463070E945507BC
:1010800038F00E945C0720F039F49F3F19F426F4F1
:101090000C9452070EF4E095E7FB0C944C07E92FF3
:1010A0000E94740758F3BA176207730784079507FD
:1010B00020F079F4A6F50C9496070EF4E0950B2E2B
:1010C000BA2FA02D0B01B90190010C01CA01A0019A
:1010D0001124FF27591B99F0593F50F4503E68F1F5
:1010E0001A16F040A22F232F342F4427585FF3CF36
:1010F000469537952795A795F0405395C9F77EF407
:101100001F16BA0B620B730B840BBAF09150A1F04F
:10111000FF0FBB1F661F771F881FC2F70EC0BA0FD5
:10112000621F731F841F48F4879577956795B7955D
:10113000F7959E3F08F0B0CF9395880F08F0992758
:10114000EE0F9795879508950E947C0788F09F572A
:1011500098F0B92F9927B751B0F0E1F0660F771FDB
:10116000881F991F1AF0BA95C9F714C0B13091F0D1
:101170000E949607B1E008950C949607672F782F88
:101180008827B85F39F0B93FCCF386957795679596
:10119000B395D9F73EF490958095709561957F4F02
:1011A0008F4F9F4F08950E94BB0608F48FEF08955C
:1011B0000E94BB06880B990B0895EE0FFF1F059048
:1011C000F491E02D09940F931F93CF93DF93823016
:1011D000910510F482E090E0E091E401F091E501E6
:1011E00020E030E0A0E0B0E0309719F1408151817B
:1011F0000281138148175907C8F08417950769F4CD
:10120000109731F012960C93129713961C9327C0E7
:101210000093E4011093E50122C02115310519F076
:101220004217530718F49A01BD01EF01DF01F801DD
:10123000DBCF21153105F9F0281B390B243031059E
:1012400080F48A819B816115710521F0FB019383F4
:10125000828304C09093E5018093E401FE013296FD
:1012600044C0FE01E20FF31F819391932250310994
:10127000398328833AC02091E2013091E301232B86
:1012800041F420910601309107013093E30120934E
:10129000E20120910401309105012115310541F44D
:1012A0002DB73EB74091080150910901241B350B21
:1012B000E091E201F091E301E217F307A0F42E1BA5
:1012C0003F0B2817390778F0AC014E5F5F4F2417AA
:1012D000350748F04E0F5F1F5093E3014093E20142
:1012E0008193919302C0E0E0F0E0CF01DF91CF91D4
:1012F0001F910F910895CF93DF93009709F481C058
:10130000FC01329713821282A091E401B091E501B1
:10131000109781F420813181820F931F2091E20187
:101320003091E3012817390751F5F093E301E09379
:10133000E20167C0ED0120E030E0CE17DF0740F4A6
:101340004A815B819E0141155105F1F0EA01F5CF1B
:10135000D383C28340815181840F951FC817D90759
:1013600059F488819981840F951F02969183808317
:101370008A819B81938382832115310529F4F0931F
:10138000E501E093E4013DC0E901FB83EA83499173
:101390005991C40FD51FEC17FD0761F4808191812D
:1013A000840F951F0296E901998388838281938136
:1013B0009B838A83E0E0F0E012968D919C911397D5
:1013C000009719F0FD01DC01F7CF8D919C911197E9
:1013D0009D012E5F3F4F820F931F2091E2013091BC
:1013E000E3012817390769F4309729F41092E501D1
:1013F0001092E40102C013821282B093E301A09321
:10140000E201DF91CF910895A0E0B0E0EAE0FAE0D8
:101410000C94D307EC01009721F4CB010E94E30860
:10142000B4C0FC01E60FF71F9C0122503109E217FE
:10143000F30708F4A8C0D9010D911C911197061764
:101440001707B0F00530110508F49BC0C8010497D8
:101450008617970708F495C002501109061B170B51
:10146000019311936D937C93CF010E947B0989C0F6
:101470005B01A01AB10A4C01800E911EA091E401FB
:10148000B091E501612C712CE12CF12C109709F43D
:1014900046C08D919C911197A815B905B1F56C01C5
:1014A00042E0C40ED11CCA14DB0478F14C018A1846
:1014B0009B08640142E0C40ED11C1296BC901297A6
:1014C0001396AC91B5E0CB16D10440F0B282A38361
:1014D00091828082D9016D937C9309C00E5F1F4F6A
:1014E000800F911FF90191838083EB2DFA2FE11476
:1014F000F10431F0D7011396FC93EE93129741C09B
:10150000F093E501E093E4013CC06816790608F425
:101510003C017D0112960D90BC91A02DB7CF80911A
:10152000E2019091E30188169906E1F466167706C8
:10153000C8F48091040190910501009741F48DB7A2
:101540009EB74091080150910901841B950BE81743
:10155000F907C8F4F093E301E093E201F901718324
:1015600060830FC0CB010E94E3087C01009759F013
:10157000A801BE010E94CF0ACE010E947B09C701CB
:1015800004C0CE0102C080E090E0CDB7DEB7EEE04F
:101590000C94EF0781E090E0F8940C94F30AFB01BF
:1015A000DC0102C001900D9241505040D8F70895DF
:1015B000FC018191861721F08823D9F79927089596
:1015C0003197CF010895FB01DC018D9101908019C5
:1015D0000110D9F3990B0895FB01DC0101900D92E4
:0A15E0000020E1F70895F894FFCF12
:1015EA00010000000000E601800000000000360152
:1015FA0060008D008301FE009C00F000737461722C
:10160A00740073746F70006E616E00696E66006FAD
:06161A007666000D0A00D7
:107E0000112484B714BE81FFF0D085E080938100F7
:107E100082E08093C00088E18093C10086E0809377
:107E2000C20080E18093C4008EE0C9D0259A86E02C
:107E300020E33CEF91E0309385002093840096BBD3
:107E4000B09BFECF1D9AA8958150A9F7CC24DD24C4
:107E500088248394B5E0AB2EA1E19A2EF3E0BF2EE7
:107E6000A2D0813461F49FD0082FAFD0023811F036
:107E7000013811F484E001C083E08DD089C08234E0
:107E800011F484E103C0853419F485E0A6D080C0E4
:107E9000853579F488D0E82EFF2485D0082F10E0AE
:107EA000102F00270E291F29000F111F8ED06801E7
:107EB0006FC0863521F484E090D080E0DECF843638
:107EC00009F040C070D06FD0082F6DD080E0C81688
:107ED00080E7D80618F4F601B7BEE895C0E0D1E017
:107EE00062D089930C17E1F7F0E0CF16F0E7DF06D8
:107EF00018F0F601B7BEE89568D007B600FCFDCFD4
:107F0000A601A0E0B1E02C9130E011968C91119780
:107F100090E0982F8827822B932B1296FA010C0160
:107F200087BEE89511244E5F5F4FF1E0A038BF0790
:107F300051F7F601A7BEE89507B600FCFDCF97BE46
:107F4000E89526C08437B1F42ED02DD0F82E2BD052
:107F50003CD0F601EF2C8F010F5F1F4F84911BD097
:107F6000EA94F801C1F70894C11CD11CFA94CF0C13
:107F7000D11C0EC0853739F428D08EE10CD085E9AC
:107F80000AD08FE07ACF813511F488E018D01DD067
:107F900080E101D065CF982F8091C00085FFFCCF94
:107FA0009093C60008958091C00087FFFCCF809118
:107FB000C00084FD01C0A8958091C6000895E0E648
:107FC000F0E098E1908380830895EDDF803219F02E
:107FD00088E0F5DFFFCF84E1DECF1F93182FE3DFCA
:107FE0001150E9F7F2DF1F91089580E0E8DFEE27F6
:047FF000FF270994CA
:027FFE00040479
:0400000300007E007B
:00000001FF